{
	"Event Organizaton/event.sol": {
		"EventContract": {
			"abi": [
				{
					"inputs": [
						{
							"internalType": "uint256",
							"name": "id",
							"type": "uint256"
						},
						{
							"internalType": "uint256",
							"name": "quantity",
							"type": "uint256"
						}
					],
					"name": "buyTicket",
					"outputs": [],
					"stateMutability": "payable",
					"type": "function"
				},
				{
					"inputs": [
						{
							"internalType": "string",
							"name": "name",
							"type": "string"
						},
						{
							"internalType": "uint256",
							"name": "date",
							"type": "uint256"
						},
						{
							"internalType": "uint256",
							"name": "price",
							"type": "uint256"
						},
						{
							"internalType": "uint256",
							"name": "ticketCount",
							"type": "uint256"
						}
					],
					"name": "createEvent",
					"outputs": [],
					"stateMutability": "nonpayable",
					"type": "function"
				},
				{
					"inputs": [
						{
							"internalType": "uint256",
							"name": "",
							"type": "uint256"
						}
					],
					"name": "events",
					"outputs": [
						{
							"internalType": "address",
							"name": "organizer",
							"type": "address"
						},
						{
							"internalType": "string",
							"name": "name",
							"type": "string"
						},
						{
							"internalType": "uint256",
							"name": "date",
							"type": "uint256"
						},
						{
							"internalType": "uint256",
							"name": "price",
							"type": "uint256"
						},
						{
							"internalType": "uint256",
							"name": "ticketCount",
							"type": "uint256"
						},
						{
							"internalType": "uint256",
							"name": "ticketRemain",
							"type": "uint256"
						}
					],
					"stateMutability": "view",
					"type": "function"
				},
				{
					"inputs": [],
					"name": "nextId",
					"outputs": [
						{
							"internalType": "uint256",
							"name": "",
							"type": "uint256"
						}
					],
					"stateMutability": "view",
					"type": "function"
				},
				{
					"inputs": [
						{
							"internalType": "address",
							"name": "",
							"type": "address"
						},
						{
							"internalType": "uint256",
							"name": "",
							"type": "uint256"
						}
					],
					"name": "tickets",
					"outputs": [
						{
							"internalType": "uint256",
							"name": "",
							"type": "uint256"
						}
					],
					"stateMutability": "view",
					"type": "function"
				},
				{
					"inputs": [
						{
							"internalType": "uint256",
							"name": "id",
							"type": "uint256"
						},
						{
							"internalType": "uint256",
							"name": "quantity",
							"type": "uint256"
						},
						{
							"internalType": "address",
							"name": "to",
							"type": "address"
						}
					],
					"name": "transferTicket",
					"outputs": [],
					"stateMutability": "nonpayable",
					"type": "function"
				}
			],
			"devdoc": {
				"kind": "dev",
				"methods": {},
				"version": 1
			},
			"evm": {
				"assembly": "    /* \"Event Organizaton/event.sol\":75:1730  contract EventContract{... */\n  mstore(0x40, 0x80)\n  callvalue\n  dup1\n  iszero\n  tag_1\n  jumpi\n  0x00\n  dup1\n  revert\ntag_1:\n  pop\n  dataSize(sub_0)\n  dup1\n  dataOffset(sub_0)\n  0x00\n  codecopy\n  0x00\n  return\nstop\n\nsub_0: assembly {\n        /* \"Event Organizaton/event.sol\":75:1730  contract EventContract{... */\n      mstore(0x40, 0x80)\n      jumpi(tag_1, lt(calldatasize, 0x04))\n      shr(0xe0, calldataload(0x00))\n      dup1\n      0x0374ab0b\n      eq\n      tag_2\n      jumpi\n      dup1\n      0x0b791430\n      eq\n      tag_3\n      jumpi\n      dup1\n      0x298ec208\n      eq\n      tag_4\n      jumpi\n      dup1\n      0x61b8ce8c\n      eq\n      tag_5\n      jumpi\n      dup1\n      0xdae7a13c\n      eq\n      tag_6\n      jumpi\n      dup1\n      0xf086a09b\n      eq\n      tag_7\n      jumpi\n    tag_1:\n      0x00\n      dup1\n      revert\n        /* \"Event Organizaton/event.sol\":407:801  function createEvent(string memory name, uint date, uint price, uint ticketCount) external {... */\n    tag_2:\n      callvalue\n      dup1\n      iszero\n      tag_8\n      jumpi\n      0x00\n      dup1\n      revert\n    tag_8:\n      pop\n      tag_9\n      0x04\n      dup1\n      calldatasize\n      sub\n      dup2\n      add\n      swap1\n      tag_10\n      swap2\n      swap1\n      tag_11\n      jump\t// in\n    tag_10:\n      tag_12\n      jump\t// in\n    tag_9:\n      stop\n        /* \"Event Organizaton/event.sol\":305:339  mapping(uint=>Event) public events */\n    tag_3:\n      callvalue\n      dup1\n      iszero\n      tag_13\n      jumpi\n      0x00\n      dup1\n      revert\n    tag_13:\n      pop\n      tag_14\n      0x04\n      dup1\n      calldatasize\n      sub\n      dup2\n      add\n      swap1\n      tag_15\n      swap2\n      swap1\n      tag_16\n      jump\t// in\n    tag_15:\n      tag_17\n      jump\t// in\n    tag_14:\n      mload(0x40)\n      tag_18\n      swap7\n      swap6\n      swap5\n      swap4\n      swap3\n      swap2\n      swap1\n      tag_19\n      jump\t// in\n    tag_18:\n      mload(0x40)\n      dup1\n      swap2\n      sub\n      swap1\n      return\n        /* \"Event Organizaton/event.sol\":809:1318  function buyTicket(uint id, uint quantity) external payable... */\n    tag_4:\n      tag_20\n      0x04\n      dup1\n      calldatasize\n      sub\n      dup2\n      add\n      swap1\n      tag_21\n      swap2\n      swap1\n      tag_22\n      jump\t// in\n    tag_21:\n      tag_23\n      jump\t// in\n    tag_20:\n      stop\n        /* \"Event Organizaton/event.sol\":278:296  uint public nextId */\n    tag_5:\n      callvalue\n      dup1\n      iszero\n      tag_24\n      jumpi\n      0x00\n      dup1\n      revert\n    tag_24:\n      pop\n      tag_25\n      tag_26\n      jump\t// in\n    tag_25:\n      mload(0x40)\n      tag_27\n      swap2\n      swap1\n      tag_28\n      jump\t// in\n    tag_27:\n      mload(0x40)\n      dup1\n      swap2\n      sub\n      swap1\n      return\n        /* \"Event Organizaton/event.sol\":346:398  mapping(address=>mapping(uint=>uint)) public tickets */\n    tag_6:\n      callvalue\n      dup1\n      iszero\n      tag_29\n      jumpi\n      0x00\n      dup1\n      revert\n    tag_29:\n      pop\n      tag_30\n      0x04\n      dup1\n      calldatasize\n      sub\n      dup2\n      add\n      swap1\n      tag_31\n      swap2\n      swap1\n      tag_32\n      jump\t// in\n    tag_31:\n      tag_33\n      jump\t// in\n    tag_30:\n      mload(0x40)\n      tag_34\n      swap2\n      swap1\n      tag_28\n      jump\t// in\n    tag_34:\n      mload(0x40)\n      dup1\n      swap2\n      sub\n      swap1\n      return\n        /* \"Event Organizaton/event.sol\":1326:1727  function transferTicket(uint id, uint quantity, address to) external {... */\n    tag_7:\n      callvalue\n      dup1\n      iszero\n      tag_35\n      jumpi\n      0x00\n      dup1\n      revert\n    tag_35:\n      pop\n      tag_36\n      0x04\n      dup1\n      calldatasize\n      sub\n      dup2\n      add\n      swap1\n      tag_37\n      swap2\n      swap1\n      tag_38\n      jump\t// in\n    tag_37:\n      tag_39\n      jump\t// in\n    tag_36:\n      stop\n        /* \"Event Organizaton/event.sol\":407:801  function createEvent(string memory name, uint date, uint price, uint ticketCount) external {... */\n    tag_12:\n        /* \"Event Organizaton/event.sol\":522:537  block.timestamp */\n      timestamp\n        /* \"Event Organizaton/event.sol\":517:521  date */\n      dup4\n        /* \"Event Organizaton/event.sol\":517:537  date>block.timestamp */\n      gt\n        /* \"Event Organizaton/event.sol\":509:586  require(date>block.timestamp, \"You can only organize event for future dates\") */\n      tag_41\n      jumpi\n      mload(0x40)\n      0x08c379a000000000000000000000000000000000000000000000000000000000\n      dup2\n      mstore\n      0x04\n      add\n      tag_42\n      swap1\n      tag_43\n      jump\t// in\n    tag_42:\n      mload(0x40)\n      dup1\n      swap2\n      sub\n      swap1\n      revert\n    tag_41:\n        /* \"Event Organizaton/event.sol\":617:618  0 */\n      0x00\n        /* \"Event Organizaton/event.sol\":605:616  ticketCount */\n      dup2\n        /* \"Event Organizaton/event.sol\":605:618  ticketCount>0 */\n      gt\n        /* \"Event Organizaton/event.sol\":597:684  require(ticketCount>0, \"You can only organize event if you create more than 0 tickets\") */\n      tag_44\n      jumpi\n      mload(0x40)\n      0x08c379a000000000000000000000000000000000000000000000000000000000\n      dup2\n      mstore\n      0x04\n      add\n      tag_45\n      swap1\n      tag_46\n      jump\t// in\n    tag_45:\n      mload(0x40)\n      dup1\n      swap2\n      sub\n      swap1\n      revert\n    tag_44:\n        /* \"Event Organizaton/event.sol\":712:774  Event(msg.sender, name, date, price, ticketCount, ticketCount) */\n      mload(0x40)\n      dup1\n      0xc0\n      add\n      0x40\n      mstore\n      dup1\n        /* \"Event Organizaton/event.sol\":718:728  msg.sender */\n      caller\n        /* \"Event Organizaton/event.sol\":712:774  Event(msg.sender, name, date, price, ticketCount, ticketCount) */\n      0xffffffffffffffffffffffffffffffffffffffff\n      and\n      dup2\n      mstore\n      0x20\n      add\n        /* \"Event Organizaton/event.sol\":730:734  name */\n      dup6\n        /* \"Event Organizaton/event.sol\":712:774  Event(msg.sender, name, date, price, ticketCount, ticketCount) */\n      dup2\n      mstore\n      0x20\n      add\n        /* \"Event Organizaton/event.sol\":736:740  date */\n      dup5\n        /* \"Event Organizaton/event.sol\":712:774  Event(msg.sender, name, date, price, ticketCount, ticketCount) */\n      dup2\n      mstore\n      0x20\n      add\n        /* \"Event Organizaton/event.sol\":742:747  price */\n      dup4\n        /* \"Event Organizaton/event.sol\":712:774  Event(msg.sender, name, date, price, ticketCount, ticketCount) */\n      dup2\n      mstore\n      0x20\n      add\n        /* \"Event Organizaton/event.sol\":749:760  ticketCount */\n      dup3\n        /* \"Event Organizaton/event.sol\":712:774  Event(msg.sender, name, date, price, ticketCount, ticketCount) */\n      dup2\n      mstore\n      0x20\n      add\n        /* \"Event Organizaton/event.sol\":762:773  ticketCount */\n      dup3\n        /* \"Event Organizaton/event.sol\":712:774  Event(msg.sender, name, date, price, ticketCount, ticketCount) */\n      dup2\n      mstore\n      pop\n        /* \"Event Organizaton/event.sol\":695:701  events */\n      0x01\n        /* \"Event Organizaton/event.sol\":695:709  events[nextId] */\n      0x00\n        /* \"Event Organizaton/event.sol\":702:708  nextId */\n      dup1\n      sload\n        /* \"Event Organizaton/event.sol\":695:709  events[nextId] */\n      dup2\n      mstore\n      0x20\n      add\n      swap1\n      dup2\n      mstore\n      0x20\n      add\n      0x00\n      keccak256\n        /* \"Event Organizaton/event.sol\":695:774  events[nextId] = Event(msg.sender, name, date, price, ticketCount, ticketCount) */\n      0x00\n      dup3\n      add\n      mload\n      dup2\n      0x00\n      add\n      exp(0x0100, 0x00)\n      dup2\n      sload\n      dup2\n      0xffffffffffffffffffffffffffffffffffffffff\n      mul\n      not\n      and\n      swap1\n      dup4\n      0xffffffffffffffffffffffffffffffffffffffff\n      and\n      mul\n      or\n      swap1\n      sstore\n      pop\n      0x20\n      dup3\n      add\n      mload\n      dup2\n      0x01\n      add\n      swap1\n      dup2\n      tag_47\n      swap2\n      swap1\n      tag_48\n      jump\t// in\n    tag_47:\n      pop\n      0x40\n      dup3\n      add\n      mload\n      dup2\n      0x02\n      add\n      sstore\n      0x60\n      dup3\n      add\n      mload\n      dup2\n      0x03\n      add\n      sstore\n      0x80\n      dup3\n      add\n      mload\n      dup2\n      0x04\n      add\n      sstore\n      0xa0\n      dup3\n      add\n      mload\n      dup2\n      0x05\n      add\n      sstore\n      swap1\n      pop\n      pop\n        /* \"Event Organizaton/event.sol\":785:791  nextId */\n      0x00\n      dup1\n        /* \"Event Organizaton/event.sol\":785:793  nextId++ */\n      dup2\n      sload\n      dup1\n      swap3\n      swap2\n      swap1\n      tag_49\n      swap1\n      tag_50\n      jump\t// in\n    tag_49:\n      swap2\n      swap1\n      pop\n      sstore\n      pop\n        /* \"Event Organizaton/event.sol\":407:801  function createEvent(string memory name, uint date, uint price, uint ticketCount) external {... */\n      pop\n      pop\n      pop\n      pop\n      jump\t// out\n        /* \"Event Organizaton/event.sol\":305:339  mapping(uint=>Event) public events */\n    tag_17:\n      mstore(0x20, 0x01)\n      dup1\n      0x00\n      mstore\n      keccak256(0x00, 0x40)\n      0x00\n      swap2\n      pop\n      swap1\n      pop\n      dup1\n      0x00\n      add\n      0x00\n      swap1\n      sload\n      swap1\n      0x0100\n      exp\n      swap1\n      div\n      0xffffffffffffffffffffffffffffffffffffffff\n      and\n      swap1\n      dup1\n      0x01\n      add\n      dup1\n      sload\n      tag_51\n      swap1\n      tag_52\n      jump\t// in\n    tag_51:\n      dup1\n      0x1f\n      add\n      0x20\n      dup1\n      swap2\n      div\n      mul\n      0x20\n      add\n      mload(0x40)\n      swap1\n      dup2\n      add\n      0x40\n      mstore\n      dup1\n      swap3\n      swap2\n      swap1\n      dup2\n      dup2\n      mstore\n      0x20\n      add\n      dup3\n      dup1\n      sload\n      tag_53\n      swap1\n      tag_52\n      jump\t// in\n    tag_53:\n      dup1\n      iszero\n      tag_54\n      jumpi\n      dup1\n      0x1f\n      lt\n      tag_55\n      jumpi\n      0x0100\n      dup1\n      dup4\n      sload\n      div\n      mul\n      dup4\n      mstore\n      swap2\n      0x20\n      add\n      swap2\n      jump(tag_54)\n    tag_55:\n      dup3\n      add\n      swap2\n      swap1\n      0x00\n      mstore\n      keccak256(0x00, 0x20)\n      swap1\n    tag_56:\n      dup2\n      sload\n      dup2\n      mstore\n      swap1\n      0x01\n      add\n      swap1\n      0x20\n      add\n      dup1\n      dup4\n      gt\n      tag_56\n      jumpi\n      dup3\n      swap1\n      sub\n      0x1f\n      and\n      dup3\n      add\n      swap2\n    tag_54:\n      pop\n      pop\n      pop\n      pop\n      pop\n      swap1\n      dup1\n      0x02\n      add\n      sload\n      swap1\n      dup1\n      0x03\n      add\n      sload\n      swap1\n      dup1\n      0x04\n      add\n      sload\n      swap1\n      dup1\n      0x05\n      add\n      sload\n      swap1\n      pop\n      dup7\n      jump\t// out\n        /* \"Event Organizaton/event.sol\":809:1318  function buyTicket(uint id, uint quantity) external payable... */\n    tag_23:\n        /* \"Event Organizaton/event.sol\":912:913  0 */\n      0x00\n        /* \"Event Organizaton/event.sol\":893:899  events */\n      0x01\n        /* \"Event Organizaton/event.sol\":893:903  events[id] */\n      0x00\n        /* \"Event Organizaton/event.sol\":900:902  id */\n      dup5\n        /* \"Event Organizaton/event.sol\":893:903  events[id] */\n      dup2\n      mstore\n      0x20\n      add\n      swap1\n      dup2\n      mstore\n      0x20\n      add\n      0x00\n      keccak256\n        /* \"Event Organizaton/event.sol\":893:908  events[id].date */\n      0x02\n      add\n      sload\n        /* \"Event Organizaton/event.sol\":893:913  events[id].date != 0 */\n      sub\n        /* \"Event Organizaton/event.sol\":885:942  require(events[id].date != 0, \"This event doesn't exist\") */\n      tag_58\n      jumpi\n      mload(0x40)\n      0x08c379a000000000000000000000000000000000000000000000000000000000\n      dup2\n      mstore\n      0x04\n      add\n      tag_59\n      swap1\n      tag_60\n      jump\t// in\n    tag_59:\n      mload(0x40)\n      dup1\n      swap2\n      sub\n      swap1\n      revert\n    tag_58:\n        /* \"Event Organizaton/event.sol\":977:992  block.timestamp */\n      timestamp\n        /* \"Event Organizaton/event.sol\":961:967  events */\n      0x01\n        /* \"Event Organizaton/event.sol\":961:971  events[id] */\n      0x00\n        /* \"Event Organizaton/event.sol\":968:970  id */\n      dup5\n        /* \"Event Organizaton/event.sol\":961:971  events[id] */\n      dup2\n      mstore\n      0x20\n      add\n      swap1\n      dup2\n      mstore\n      0x20\n      add\n      0x00\n      keccak256\n        /* \"Event Organizaton/event.sol\":961:976  events[id].date */\n      0x02\n      add\n      sload\n        /* \"Event Organizaton/event.sol\":961:992  events[id].date>block.timestamp */\n      gt\n        /* \"Event Organizaton/event.sol\":953:1026  require(events[id].date>block.timestamp, \"The event has already occured\") */\n      tag_61\n      jumpi\n      mload(0x40)\n      0x08c379a000000000000000000000000000000000000000000000000000000000\n      dup2\n      mstore\n      0x04\n      add\n      tag_62\n      swap1\n      tag_63\n      jump\t// in\n    tag_62:\n      mload(0x40)\n      dup1\n      swap2\n      sub\n      swap1\n      revert\n    tag_61:\n        /* \"Event Organizaton/event.sol\":1076:1084  quantity */\n      dup1\n        /* \"Event Organizaton/event.sol\":1059:1065  events */\n      0x01\n        /* \"Event Organizaton/event.sol\":1059:1069  events[id] */\n      0x00\n        /* \"Event Organizaton/event.sol\":1066:1068  id */\n      dup5\n        /* \"Event Organizaton/event.sol\":1059:1069  events[id] */\n      dup2\n      mstore\n      0x20\n      add\n      swap1\n      dup2\n      mstore\n      0x20\n      add\n      0x00\n      keccak256\n        /* \"Event Organizaton/event.sol\":1059:1075  events[id].price */\n      0x03\n      add\n      sload\n        /* \"Event Organizaton/event.sol\":1059:1084  events[id].price*quantity */\n      tag_64\n      swap2\n      swap1\n      tag_65\n      jump\t// in\n    tag_64:\n        /* \"Event Organizaton/event.sol\":1045:1054  msg.value */\n      callvalue\n        /* \"Event Organizaton/event.sol\":1045:1085  msg.value >= (events[id].price*quantity) */\n      lt\n      iszero\n        /* \"Event Organizaton/event.sol\":1037:1109  require(msg.value >= (events[id].price*quantity), \"Ether is not enough\") */\n      tag_66\n      jumpi\n      mload(0x40)\n      0x08c379a000000000000000000000000000000000000000000000000000000000\n      dup2\n      mstore\n      0x04\n      add\n      tag_67\n      swap1\n      tag_68\n      jump\t// in\n    tag_67:\n      mload(0x40)\n      dup1\n      swap2\n      sub\n      swap1\n      revert\n    tag_66:\n        /* \"Event Organizaton/event.sol\":1155:1163  quantity */\n      dup1\n        /* \"Event Organizaton/event.sol\":1128:1134  events */\n      0x01\n        /* \"Event Organizaton/event.sol\":1128:1138  events[id] */\n      0x00\n        /* \"Event Organizaton/event.sol\":1135:1137  id */\n      dup5\n        /* \"Event Organizaton/event.sol\":1128:1138  events[id] */\n      dup2\n      mstore\n      0x20\n      add\n      swap1\n      dup2\n      mstore\n      0x20\n      add\n      0x00\n      keccak256\n        /* \"Event Organizaton/event.sol\":1128:1151  events[id].ticketRemain */\n      0x05\n      add\n      sload\n        /* \"Event Organizaton/event.sol\":1128:1163  events[id].ticketRemain >= quantity */\n      lt\n      iszero\n        /* \"Event Organizaton/event.sol\":1120:1186  require(events[id].ticketRemain >= quantity, \"Not enough tickets\") */\n      tag_69\n      jumpi\n      mload(0x40)\n      0x08c379a000000000000000000000000000000000000000000000000000000000\n      dup2\n      mstore\n      0x04\n      add\n      tag_70\n      swap1\n      tag_71\n      jump\t// in\n    tag_70:\n      mload(0x40)\n      dup1\n      swap2\n      sub\n      swap1\n      revert\n    tag_69:\n        /* \"Event Organizaton/event.sol\":1224:1232  quantity */\n      dup1\n        /* \"Event Organizaton/event.sol\":1197:1204  tickets */\n      0x02\n        /* \"Event Organizaton/event.sol\":1197:1216  tickets[msg.sender] */\n      0x00\n        /* \"Event Organizaton/event.sol\":1205:1215  msg.sender */\n      caller\n        /* \"Event Organizaton/event.sol\":1197:1216  tickets[msg.sender] */\n      0xffffffffffffffffffffffffffffffffffffffff\n      and\n      0xffffffffffffffffffffffffffffffffffffffff\n      and\n      dup2\n      mstore\n      0x20\n      add\n      swap1\n      dup2\n      mstore\n      0x20\n      add\n      0x00\n      keccak256\n        /* \"Event Organizaton/event.sol\":1197:1220  tickets[msg.sender][id] */\n      0x00\n        /* \"Event Organizaton/event.sol\":1217:1219  id */\n      dup5\n        /* \"Event Organizaton/event.sol\":1197:1220  tickets[msg.sender][id] */\n      dup2\n      mstore\n      0x20\n      add\n      swap1\n      dup2\n      mstore\n      0x20\n      add\n      0x00\n      keccak256\n      0x00\n        /* \"Event Organizaton/event.sol\":1197:1232  tickets[msg.sender][id] += quantity */\n      dup3\n      dup3\n      sload\n      tag_72\n      swap2\n      swap1\n      tag_73\n      jump\t// in\n    tag_72:\n      swap3\n      pop\n      pop\n      dup2\n      swap1\n      sstore\n      pop\n        /* \"Event Organizaton/event.sol\":1251:1261  msg.sender */\n      caller\n        /* \"Event Organizaton/event.sol\":1243:1271  payable(msg.sender).transfer */\n      0xffffffffffffffffffffffffffffffffffffffff\n      and\n        /* \"Event Organizaton/event.sol\":1243:1310  payable(msg.sender).transfer(msg.value-(events[id].price*quantity)) */\n      0x08fc\n        /* \"Event Organizaton/event.sol\":1300:1308  quantity */\n      dup3\n        /* \"Event Organizaton/event.sol\":1283:1289  events */\n      0x01\n        /* \"Event Organizaton/event.sol\":1283:1293  events[id] */\n      0x00\n        /* \"Event Organizaton/event.sol\":1290:1292  id */\n      dup7\n        /* \"Event Organizaton/event.sol\":1283:1293  events[id] */\n      dup2\n      mstore\n      0x20\n      add\n      swap1\n      dup2\n      mstore\n      0x20\n      add\n      0x00\n      keccak256\n        /* \"Event Organizaton/event.sol\":1283:1299  events[id].price */\n      0x03\n      add\n      sload\n        /* \"Event Organizaton/event.sol\":1283:1308  events[id].price*quantity */\n      tag_74\n      swap2\n      swap1\n      tag_65\n      jump\t// in\n    tag_74:\n        /* \"Event Organizaton/event.sol\":1272:1281  msg.value */\n      callvalue\n        /* \"Event Organizaton/event.sol\":1272:1309  msg.value-(events[id].price*quantity) */\n      tag_75\n      swap2\n      swap1\n      tag_76\n      jump\t// in\n    tag_75:\n        /* \"Event Organizaton/event.sol\":1243:1310  payable(msg.sender).transfer(msg.value-(events[id].price*quantity)) */\n      swap1\n      dup2\n      iszero\n      mul\n      swap1\n      mload(0x40)\n      0x00\n      mload(0x40)\n      dup1\n      dup4\n      sub\n      dup2\n      dup6\n      dup9\n      dup9\n      call\n      swap4\n      pop\n      pop\n      pop\n      pop\n      iszero\n      dup1\n      iszero\n      tag_78\n      jumpi\n      returndatasize\n      0x00\n      dup1\n      returndatacopy\n      revert(0x00, returndatasize)\n    tag_78:\n      pop\n        /* \"Event Organizaton/event.sol\":809:1318  function buyTicket(uint id, uint quantity) external payable... */\n      pop\n      pop\n      jump\t// out\n        /* \"Event Organizaton/event.sol\":278:296  uint public nextId */\n    tag_26:\n      sload(0x00)\n      dup2\n      jump\t// out\n        /* \"Event Organizaton/event.sol\":346:398  mapping(address=>mapping(uint=>uint)) public tickets */\n    tag_33:\n      mstore(0x20, 0x02)\n      dup2\n      0x00\n      mstore\n      mstore(0x20, keccak256(0x00, 0x40))\n      dup1\n      0x00\n      mstore\n      keccak256(0x00, 0x40)\n      0x00\n      swap2\n      pop\n      swap2\n      pop\n      pop\n      sload\n      dup2\n      jump\t// out\n        /* \"Event Organizaton/event.sol\":1326:1727  function transferTicket(uint id, uint quantity, address to) external {... */\n    tag_39:\n        /* \"Event Organizaton/event.sol\":1433:1434  0 */\n      0x00\n        /* \"Event Organizaton/event.sol\":1414:1420  events */\n      0x01\n        /* \"Event Organizaton/event.sol\":1414:1424  events[id] */\n      0x00\n        /* \"Event Organizaton/event.sol\":1421:1423  id */\n      dup6\n        /* \"Event Organizaton/event.sol\":1414:1424  events[id] */\n      dup2\n      mstore\n      0x20\n      add\n      swap1\n      dup2\n      mstore\n      0x20\n      add\n      0x00\n      keccak256\n        /* \"Event Organizaton/event.sol\":1414:1429  events[id].date */\n      0x02\n      add\n      sload\n        /* \"Event Organizaton/event.sol\":1414:1434  events[id].date != 0 */\n      sub\n        /* \"Event Organizaton/event.sol\":1406:1463  require(events[id].date != 0, \"This event doesn't exist\") */\n      tag_80\n      jumpi\n      mload(0x40)\n      0x08c379a000000000000000000000000000000000000000000000000000000000\n      dup2\n      mstore\n      0x04\n      add\n      tag_81\n      swap1\n      tag_60\n      jump\t// in\n    tag_81:\n      mload(0x40)\n      dup1\n      swap2\n      sub\n      swap1\n      revert\n    tag_80:\n        /* \"Event Organizaton/event.sol\":1498:1513  block.timestamp */\n      timestamp\n        /* \"Event Organizaton/event.sol\":1482:1488  events */\n      0x01\n        /* \"Event Organizaton/event.sol\":1482:1492  events[id] */\n      0x00\n        /* \"Event Organizaton/event.sol\":1489:1491  id */\n      dup6\n        /* \"Event Organizaton/event.sol\":1482:1492  events[id] */\n      dup2\n      mstore\n      0x20\n      add\n      swap1\n      dup2\n      mstore\n      0x20\n      add\n      0x00\n      keccak256\n        /* \"Event Organizaton/event.sol\":1482:1497  events[id].date */\n      0x02\n      add\n      sload\n        /* \"Event Organizaton/event.sol\":1482:1513  events[id].date>block.timestamp */\n      gt\n        /* \"Event Organizaton/event.sol\":1474:1547  require(events[id].date>block.timestamp, \"The event has already occured\") */\n      tag_82\n      jumpi\n      mload(0x40)\n      0x08c379a000000000000000000000000000000000000000000000000000000000\n      dup2\n      mstore\n      0x04\n      add\n      tag_83\n      swap1\n      tag_63\n      jump\t// in\n    tag_83:\n      mload(0x40)\n      dup1\n      swap2\n      sub\n      swap1\n      revert\n    tag_82:\n        /* \"Event Organizaton/event.sol\":1593:1601  quantity */\n      dup2\n        /* \"Event Organizaton/event.sol\":1566:1573  tickets */\n      0x02\n        /* \"Event Organizaton/event.sol\":1566:1585  tickets[msg.sender] */\n      0x00\n        /* \"Event Organizaton/event.sol\":1574:1584  msg.sender */\n      caller\n        /* \"Event Organizaton/event.sol\":1566:1585  tickets[msg.sender] */\n      0xffffffffffffffffffffffffffffffffffffffff\n      and\n      0xffffffffffffffffffffffffffffffffffffffff\n      and\n      dup2\n      mstore\n      0x20\n      add\n      swap1\n      dup2\n      mstore\n      0x20\n      add\n      0x00\n      keccak256\n        /* \"Event Organizaton/event.sol\":1566:1589  tickets[msg.sender][id] */\n      0x00\n        /* \"Event Organizaton/event.sol\":1586:1588  id */\n      dup6\n        /* \"Event Organizaton/event.sol\":1566:1589  tickets[msg.sender][id] */\n      dup2\n      mstore\n      0x20\n      add\n      swap1\n      dup2\n      mstore\n      0x20\n      add\n      0x00\n      keccak256\n      sload\n        /* \"Event Organizaton/event.sol\":1566:1601  tickets[msg.sender][id] >= quantity */\n      lt\n      iszero\n        /* \"Event Organizaton/event.sol\":1558:1635  require(tickets[msg.sender][id] >= quantity, \"You don't have enough tickets\") */\n      tag_84\n      jumpi\n      mload(0x40)\n      0x08c379a000000000000000000000000000000000000000000000000000000000\n      dup2\n      mstore\n      0x04\n      add\n      tag_85\n      swap1\n      tag_86\n      jump\t// in\n    tag_85:\n      mload(0x40)\n      dup1\n      swap2\n      sub\n      swap1\n      revert\n    tag_84:\n        /* \"Event Organizaton/event.sol\":1673:1681  quantity */\n      dup2\n        /* \"Event Organizaton/event.sol\":1646:1653  tickets */\n      0x02\n        /* \"Event Organizaton/event.sol\":1646:1665  tickets[msg.sender] */\n      0x00\n        /* \"Event Organizaton/event.sol\":1654:1664  msg.sender */\n      caller\n        /* \"Event Organizaton/event.sol\":1646:1665  tickets[msg.sender] */\n      0xffffffffffffffffffffffffffffffffffffffff\n      and\n      0xffffffffffffffffffffffffffffffffffffffff\n      and\n      dup2\n      mstore\n      0x20\n      add\n      swap1\n      dup2\n      mstore\n      0x20\n      add\n      0x00\n      keccak256\n        /* \"Event Organizaton/event.sol\":1646:1669  tickets[msg.sender][id] */\n      0x00\n        /* \"Event Organizaton/event.sol\":1666:1668  id */\n      dup6\n        /* \"Event Organizaton/event.sol\":1646:1669  tickets[msg.sender][id] */\n      dup2\n      mstore\n      0x20\n      add\n      swap1\n      dup2\n      mstore\n      0x20\n      add\n      0x00\n      keccak256\n      0x00\n        /* \"Event Organizaton/event.sol\":1646:1681  tickets[msg.sender][id] -= quantity */\n      dup3\n      dup3\n      sload\n      tag_87\n      swap2\n      swap1\n      tag_76\n      jump\t// in\n    tag_87:\n      swap3\n      pop\n      pop\n      dup2\n      swap1\n      sstore\n      pop\n        /* \"Event Organizaton/event.sol\":1711:1719  quantity */\n      dup2\n        /* \"Event Organizaton/event.sol\":1692:1699  tickets */\n      0x02\n        /* \"Event Organizaton/event.sol\":1692:1703  tickets[to] */\n      0x00\n        /* \"Event Organizaton/event.sol\":1700:1702  to */\n      dup4\n        /* \"Event Organizaton/event.sol\":1692:1703  tickets[to] */\n      0xffffffffffffffffffffffffffffffffffffffff\n      and\n      0xffffffffffffffffffffffffffffffffffffffff\n      and\n      dup2\n      mstore\n      0x20\n      add\n      swap1\n      dup2\n      mstore\n      0x20\n      add\n      0x00\n      keccak256\n        /* \"Event Organizaton/event.sol\":1692:1707  tickets[to][id] */\n      0x00\n        /* \"Event Organizaton/event.sol\":1704:1706  id */\n      dup6\n        /* \"Event Organizaton/event.sol\":1692:1707  tickets[to][id] */\n      dup2\n      mstore\n      0x20\n      add\n      swap1\n      dup2\n      mstore\n      0x20\n      add\n      0x00\n      keccak256\n      0x00\n        /* \"Event Organizaton/event.sol\":1692:1719  tickets[to][id] += quantity */\n      dup3\n      dup3\n      sload\n      tag_88\n      swap2\n      swap1\n      tag_73\n      jump\t// in\n    tag_88:\n      swap3\n      pop\n      pop\n      dup2\n      swap1\n      sstore\n      pop\n        /* \"Event Organizaton/event.sol\":1326:1727  function transferTicket(uint id, uint quantity, address to) external {... */\n      pop\n      pop\n      pop\n      jump\t// out\n        /* \"#utility.yul\":7:82   */\n    tag_89:\n        /* \"#utility.yul\":40:46   */\n      0x00\n        /* \"#utility.yul\":73:75   */\n      0x40\n        /* \"#utility.yul\":67:76   */\n      mload\n        /* \"#utility.yul\":57:76   */\n      swap1\n      pop\n        /* \"#utility.yul\":7:82   */\n      swap1\n      jump\t// out\n        /* \"#utility.yul\":88:205   */\n    tag_90:\n        /* \"#utility.yul\":197:198   */\n      0x00\n        /* \"#utility.yul\":194:195   */\n      dup1\n        /* \"#utility.yul\":187:199   */\n      revert\n        /* \"#utility.yul\":211:328   */\n    tag_91:\n        /* \"#utility.yul\":320:321   */\n      0x00\n        /* \"#utility.yul\":317:318   */\n      dup1\n        /* \"#utility.yul\":310:322   */\n      revert\n        /* \"#utility.yul\":334:451   */\n    tag_92:\n        /* \"#utility.yul\":443:444   */\n      0x00\n        /* \"#utility.yul\":440:441   */\n      dup1\n        /* \"#utility.yul\":433:445   */\n      revert\n        /* \"#utility.yul\":457:574   */\n    tag_93:\n        /* \"#utility.yul\":566:567   */\n      0x00\n        /* \"#utility.yul\":563:564   */\n      dup1\n        /* \"#utility.yul\":556:568   */\n      revert\n        /* \"#utility.yul\":580:682   */\n    tag_94:\n        /* \"#utility.yul\":621:627   */\n      0x00\n        /* \"#utility.yul\":672:674   */\n      0x1f\n        /* \"#utility.yul\":668:675   */\n      not\n        /* \"#utility.yul\":663:665   */\n      0x1f\n        /* \"#utility.yul\":656:661   */\n      dup4\n        /* \"#utility.yul\":652:666   */\n      add\n        /* \"#utility.yul\":648:676   */\n      and\n        /* \"#utility.yul\":638:676   */\n      swap1\n      pop\n        /* \"#utility.yul\":580:682   */\n      swap2\n      swap1\n      pop\n      jump\t// out\n        /* \"#utility.yul\":688:868   */\n    tag_95:\n        /* \"#utility.yul\":736:813   */\n      0x4e487b7100000000000000000000000000000000000000000000000000000000\n        /* \"#utility.yul\":733:734   */\n      0x00\n        /* \"#utility.yul\":726:814   */\n      mstore\n        /* \"#utility.yul\":833:837   */\n      0x41\n        /* \"#utility.yul\":830:831   */\n      0x04\n        /* \"#utility.yul\":823:838   */\n      mstore\n        /* \"#utility.yul\":857:861   */\n      0x24\n        /* \"#utility.yul\":854:855   */\n      0x00\n        /* \"#utility.yul\":847:862   */\n      revert\n        /* \"#utility.yul\":874:1155   */\n    tag_96:\n        /* \"#utility.yul\":957:984   */\n      tag_155\n        /* \"#utility.yul\":979:983   */\n      dup3\n        /* \"#utility.yul\":957:984   */\n      tag_94\n      jump\t// in\n    tag_155:\n        /* \"#utility.yul\":949:955   */\n      dup2\n        /* \"#utility.yul\":945:985   */\n      add\n        /* \"#utility.yul\":1087:1093   */\n      dup2\n        /* \"#utility.yul\":1075:1085   */\n      dup2\n        /* \"#utility.yul\":1072:1094   */\n      lt\n        /* \"#utility.yul\":1051:1069   */\n      0xffffffffffffffff\n        /* \"#utility.yul\":1039:1049   */\n      dup3\n        /* \"#utility.yul\":1036:1070   */\n      gt\n        /* \"#utility.yul\":1033:1095   */\n      or\n        /* \"#utility.yul\":1030:1118   */\n      iszero\n      tag_156\n      jumpi\n        /* \"#utility.yul\":1098:1116   */\n      tag_157\n      tag_95\n      jump\t// in\n    tag_157:\n        /* \"#utility.yul\":1030:1118   */\n    tag_156:\n        /* \"#utility.yul\":1138:1148   */\n      dup1\n        /* \"#utility.yul\":1134:1136   */\n      0x40\n        /* \"#utility.yul\":1127:1149   */\n      mstore\n        /* \"#utility.yul\":917:1155   */\n      pop\n        /* \"#utility.yul\":874:1155   */\n      pop\n      pop\n      jump\t// out\n        /* \"#utility.yul\":1161:1290   */\n    tag_97:\n        /* \"#utility.yul\":1195:1201   */\n      0x00\n        /* \"#utility.yul\":1222:1242   */\n      tag_159\n      tag_89\n      jump\t// in\n    tag_159:\n        /* \"#utility.yul\":1212:1242   */\n      swap1\n      pop\n        /* \"#utility.yul\":1251:1284   */\n      tag_160\n        /* \"#utility.yul\":1279:1283   */\n      dup3\n        /* \"#utility.yul\":1271:1277   */\n      dup3\n        /* \"#utility.yul\":1251:1284   */\n      tag_96\n      jump\t// in\n    tag_160:\n        /* \"#utility.yul\":1161:1290   */\n      swap2\n      swap1\n      pop\n      jump\t// out\n        /* \"#utility.yul\":1296:1604   */\n    tag_98:\n        /* \"#utility.yul\":1358:1362   */\n      0x00\n        /* \"#utility.yul\":1448:1466   */\n      0xffffffffffffffff\n        /* \"#utility.yul\":1440:1446   */\n      dup3\n        /* \"#utility.yul\":1437:1467   */\n      gt\n        /* \"#utility.yul\":1434:1490   */\n      iszero\n      tag_162\n      jumpi\n        /* \"#utility.yul\":1470:1488   */\n      tag_163\n      tag_95\n      jump\t// in\n    tag_163:\n        /* \"#utility.yul\":1434:1490   */\n    tag_162:\n        /* \"#utility.yul\":1508:1537   */\n      tag_164\n        /* \"#utility.yul\":1530:1536   */\n      dup3\n        /* \"#utility.yul\":1508:1537   */\n      tag_94\n      jump\t// in\n    tag_164:\n        /* \"#utility.yul\":1500:1537   */\n      swap1\n      pop\n        /* \"#utility.yul\":1592:1596   */\n      0x20\n        /* \"#utility.yul\":1586:1590   */\n      dup2\n        /* \"#utility.yul\":1582:1597   */\n      add\n        /* \"#utility.yul\":1574:1597   */\n      swap1\n      pop\n        /* \"#utility.yul\":1296:1604   */\n      swap2\n      swap1\n      pop\n      jump\t// out\n        /* \"#utility.yul\":1610:1756   */\n    tag_99:\n        /* \"#utility.yul\":1707:1713   */\n      dup3\n        /* \"#utility.yul\":1702:1705   */\n      dup2\n        /* \"#utility.yul\":1697:1700   */\n      dup4\n        /* \"#utility.yul\":1684:1714   */\n      calldatacopy\n        /* \"#utility.yul\":1748:1749   */\n      0x00\n        /* \"#utility.yul\":1739:1745   */\n      dup4\n        /* \"#utility.yul\":1734:1737   */\n      dup4\n        /* \"#utility.yul\":1730:1746   */\n      add\n        /* \"#utility.yul\":1723:1750   */\n      mstore\n        /* \"#utility.yul\":1610:1756   */\n      pop\n      pop\n      pop\n      jump\t// out\n        /* \"#utility.yul\":1762:2187   */\n    tag_100:\n        /* \"#utility.yul\":1840:1845   */\n      0x00\n        /* \"#utility.yul\":1865:1931   */\n      tag_167\n        /* \"#utility.yul\":1881:1930   */\n      tag_168\n        /* \"#utility.yul\":1923:1929   */\n      dup5\n        /* \"#utility.yul\":1881:1930   */\n      tag_98\n      jump\t// in\n    tag_168:\n        /* \"#utility.yul\":1865:1931   */\n      tag_97\n      jump\t// in\n    tag_167:\n        /* \"#utility.yul\":1856:1931   */\n      swap1\n      pop\n        /* \"#utility.yul\":1954:1960   */\n      dup3\n        /* \"#utility.yul\":1947:1952   */\n      dup2\n        /* \"#utility.yul\":1940:1961   */\n      mstore\n        /* \"#utility.yul\":1992:1996   */\n      0x20\n        /* \"#utility.yul\":1985:1990   */\n      dup2\n        /* \"#utility.yul\":1981:1997   */\n      add\n        /* \"#utility.yul\":2030:2033   */\n      dup5\n        /* \"#utility.yul\":2021:2027   */\n      dup5\n        /* \"#utility.yul\":2016:2019   */\n      dup5\n        /* \"#utility.yul\":2012:2028   */\n      add\n        /* \"#utility.yul\":2009:2034   */\n      gt\n        /* \"#utility.yul\":2006:2118   */\n      iszero\n      tag_169\n      jumpi\n        /* \"#utility.yul\":2037:2116   */\n      tag_170\n      tag_93\n      jump\t// in\n    tag_170:\n        /* \"#utility.yul\":2006:2118   */\n    tag_169:\n        /* \"#utility.yul\":2127:2181   */\n      tag_171\n        /* \"#utility.yul\":2174:2180   */\n      dup5\n        /* \"#utility.yul\":2169:2172   */\n      dup3\n        /* \"#utility.yul\":2164:2167   */\n      dup6\n        /* \"#utility.yul\":2127:2181   */\n      tag_99\n      jump\t// in\n    tag_171:\n        /* \"#utility.yul\":1846:2187   */\n      pop\n        /* \"#utility.yul\":1762:2187   */\n      swap4\n      swap3\n      pop\n      pop\n      pop\n      jump\t// out\n        /* \"#utility.yul\":2207:2547   */\n    tag_101:\n        /* \"#utility.yul\":2263:2268   */\n      0x00\n        /* \"#utility.yul\":2312:2315   */\n      dup3\n        /* \"#utility.yul\":2305:2309   */\n      0x1f\n        /* \"#utility.yul\":2297:2303   */\n      dup4\n        /* \"#utility.yul\":2293:2310   */\n      add\n        /* \"#utility.yul\":2289:2316   */\n      slt\n        /* \"#utility.yul\":2279:2401   */\n      tag_173\n      jumpi\n        /* \"#utility.yul\":2320:2399   */\n      tag_174\n      tag_92\n      jump\t// in\n    tag_174:\n        /* \"#utility.yul\":2279:2401   */\n    tag_173:\n        /* \"#utility.yul\":2437:2443   */\n      dup2\n        /* \"#utility.yul\":2424:2444   */\n      calldataload\n        /* \"#utility.yul\":2462:2541   */\n      tag_175\n        /* \"#utility.yul\":2537:2540   */\n      dup5\n        /* \"#utility.yul\":2529:2535   */\n      dup3\n        /* \"#utility.yul\":2522:2526   */\n      0x20\n        /* \"#utility.yul\":2514:2520   */\n      dup7\n        /* \"#utility.yul\":2510:2527   */\n      add\n        /* \"#utility.yul\":2462:2541   */\n      tag_100\n      jump\t// in\n    tag_175:\n        /* \"#utility.yul\":2453:2541   */\n      swap2\n      pop\n        /* \"#utility.yul\":2269:2547   */\n      pop\n        /* \"#utility.yul\":2207:2547   */\n      swap3\n      swap2\n      pop\n      pop\n      jump\t// out\n        /* \"#utility.yul\":2553:2630   */\n    tag_102:\n        /* \"#utility.yul\":2590:2597   */\n      0x00\n        /* \"#utility.yul\":2619:2624   */\n      dup2\n        /* \"#utility.yul\":2608:2624   */\n      swap1\n      pop\n        /* \"#utility.yul\":2553:2630   */\n      swap2\n      swap1\n      pop\n      jump\t// out\n        /* \"#utility.yul\":2636:2758   */\n    tag_103:\n        /* \"#utility.yul\":2709:2733   */\n      tag_178\n        /* \"#utility.yul\":2727:2732   */\n      dup2\n        /* \"#utility.yul\":2709:2733   */\n      tag_102\n      jump\t// in\n    tag_178:\n        /* \"#utility.yul\":2702:2707   */\n      dup2\n        /* \"#utility.yul\":2699:2734   */\n      eq\n        /* \"#utility.yul\":2689:2752   */\n      tag_179\n      jumpi\n        /* \"#utility.yul\":2748:2749   */\n      0x00\n        /* \"#utility.yul\":2745:2746   */\n      dup1\n        /* \"#utility.yul\":2738:2750   */\n      revert\n        /* \"#utility.yul\":2689:2752   */\n    tag_179:\n        /* \"#utility.yul\":2636:2758   */\n      pop\n      jump\t// out\n        /* \"#utility.yul\":2764:2903   */\n    tag_104:\n        /* \"#utility.yul\":2810:2815   */\n      0x00\n        /* \"#utility.yul\":2848:2854   */\n      dup2\n        /* \"#utility.yul\":2835:2855   */\n      calldataload\n        /* \"#utility.yul\":2826:2855   */\n      swap1\n      pop\n        /* \"#utility.yul\":2864:2897   */\n      tag_181\n        /* \"#utility.yul\":2891:2896   */\n      dup2\n        /* \"#utility.yul\":2864:2897   */\n      tag_103\n      jump\t// in\n    tag_181:\n        /* \"#utility.yul\":2764:2903   */\n      swap3\n      swap2\n      pop\n      pop\n      jump\t// out\n        /* \"#utility.yul\":2909:3854   */\n    tag_11:\n        /* \"#utility.yul\":3005:3011   */\n      0x00\n        /* \"#utility.yul\":3013:3019   */\n      dup1\n        /* \"#utility.yul\":3021:3027   */\n      0x00\n        /* \"#utility.yul\":3029:3035   */\n      dup1\n        /* \"#utility.yul\":3078:3081   */\n      0x80\n        /* \"#utility.yul\":3066:3075   */\n      dup6\n        /* \"#utility.yul\":3057:3064   */\n      dup8\n        /* \"#utility.yul\":3053:3076   */\n      sub\n        /* \"#utility.yul\":3049:3082   */\n      slt\n        /* \"#utility.yul\":3046:3166   */\n      iszero\n      tag_183\n      jumpi\n        /* \"#utility.yul\":3085:3164   */\n      tag_184\n      tag_90\n      jump\t// in\n    tag_184:\n        /* \"#utility.yul\":3046:3166   */\n    tag_183:\n        /* \"#utility.yul\":3233:3234   */\n      0x00\n        /* \"#utility.yul\":3222:3231   */\n      dup6\n        /* \"#utility.yul\":3218:3235   */\n      add\n        /* \"#utility.yul\":3205:3236   */\n      calldataload\n        /* \"#utility.yul\":3263:3281   */\n      0xffffffffffffffff\n        /* \"#utility.yul\":3255:3261   */\n      dup2\n        /* \"#utility.yul\":3252:3282   */\n      gt\n        /* \"#utility.yul\":3249:3366   */\n      iszero\n      tag_185\n      jumpi\n        /* \"#utility.yul\":3285:3364   */\n      tag_186\n      tag_91\n      jump\t// in\n    tag_186:\n        /* \"#utility.yul\":3249:3366   */\n    tag_185:\n        /* \"#utility.yul\":3390:3453   */\n      tag_187\n        /* \"#utility.yul\":3445:3452   */\n      dup8\n        /* \"#utility.yul\":3436:3442   */\n      dup3\n        /* \"#utility.yul\":3425:3434   */\n      dup9\n        /* \"#utility.yul\":3421:3443   */\n      add\n        /* \"#utility.yul\":3390:3453   */\n      tag_101\n      jump\t// in\n    tag_187:\n        /* \"#utility.yul\":3380:3453   */\n      swap5\n      pop\n        /* \"#utility.yul\":3176:3463   */\n      pop\n        /* \"#utility.yul\":3502:3504   */\n      0x20\n        /* \"#utility.yul\":3528:3581   */\n      tag_188\n        /* \"#utility.yul\":3573:3580   */\n      dup8\n        /* \"#utility.yul\":3564:3570   */\n      dup3\n        /* \"#utility.yul\":3553:3562   */\n      dup9\n        /* \"#utility.yul\":3549:3571   */\n      add\n        /* \"#utility.yul\":3528:3581   */\n      tag_104\n      jump\t// in\n    tag_188:\n        /* \"#utility.yul\":3518:3581   */\n      swap4\n      pop\n        /* \"#utility.yul\":3473:3591   */\n      pop\n        /* \"#utility.yul\":3630:3632   */\n      0x40\n        /* \"#utility.yul\":3656:3709   */\n      tag_189\n        /* \"#utility.yul\":3701:3708   */\n      dup8\n        /* \"#utility.yul\":3692:3698   */\n      dup3\n        /* \"#utility.yul\":3681:3690   */\n      dup9\n        /* \"#utility.yul\":3677:3699   */\n      add\n        /* \"#utility.yul\":3656:3709   */\n      tag_104\n      jump\t// in\n    tag_189:\n        /* \"#utility.yul\":3646:3709   */\n      swap3\n      pop\n        /* \"#utility.yul\":3601:3719   */\n      pop\n        /* \"#utility.yul\":3758:3760   */\n      0x60\n        /* \"#utility.yul\":3784:3837   */\n      tag_190\n        /* \"#utility.yul\":3829:3836   */\n      dup8\n        /* \"#utility.yul\":3820:3826   */\n      dup3\n        /* \"#utility.yul\":3809:3818   */\n      dup9\n        /* \"#utility.yul\":3805:3827   */\n      add\n        /* \"#utility.yul\":3784:3837   */\n      tag_104\n      jump\t// in\n    tag_190:\n        /* \"#utility.yul\":3774:3837   */\n      swap2\n      pop\n        /* \"#utility.yul\":3729:3847   */\n      pop\n        /* \"#utility.yul\":2909:3854   */\n      swap3\n      swap6\n      swap2\n      swap5\n      pop\n      swap3\n      pop\n      jump\t// out\n        /* \"#utility.yul\":3860:4189   */\n    tag_16:\n        /* \"#utility.yul\":3919:3925   */\n      0x00\n        /* \"#utility.yul\":3968:3970   */\n      0x20\n        /* \"#utility.yul\":3956:3965   */\n      dup3\n        /* \"#utility.yul\":3947:3954   */\n      dup5\n        /* \"#utility.yul\":3943:3966   */\n      sub\n        /* \"#utility.yul\":3939:3971   */\n      slt\n        /* \"#utility.yul\":3936:4055   */\n      iszero\n      tag_192\n      jumpi\n        /* \"#utility.yul\":3974:4053   */\n      tag_193\n      tag_90\n      jump\t// in\n    tag_193:\n        /* \"#utility.yul\":3936:4055   */\n    tag_192:\n        /* \"#utility.yul\":4094:4095   */\n      0x00\n        /* \"#utility.yul\":4119:4172   */\n      tag_194\n        /* \"#utility.yul\":4164:4171   */\n      dup5\n        /* \"#utility.yul\":4155:4161   */\n      dup3\n        /* \"#utility.yul\":4144:4153   */\n      dup6\n        /* \"#utility.yul\":4140:4162   */\n      add\n        /* \"#utility.yul\":4119:4172   */\n      tag_104\n      jump\t// in\n    tag_194:\n        /* \"#utility.yul\":4109:4172   */\n      swap2\n      pop\n        /* \"#utility.yul\":4065:4182   */\n      pop\n        /* \"#utility.yul\":3860:4189   */\n      swap3\n      swap2\n      pop\n      pop\n      jump\t// out\n        /* \"#utility.yul\":4195:4321   */\n    tag_105:\n        /* \"#utility.yul\":4232:4239   */\n      0x00\n        /* \"#utility.yul\":4272:4314   */\n      0xffffffffffffffffffffffffffffffffffffffff\n        /* \"#utility.yul\":4265:4270   */\n      dup3\n        /* \"#utility.yul\":4261:4315   */\n      and\n        /* \"#utility.yul\":4250:4315   */\n      swap1\n      pop\n        /* \"#utility.yul\":4195:4321   */\n      swap2\n      swap1\n      pop\n      jump\t// out\n        /* \"#utility.yul\":4327:4423   */\n    tag_106:\n        /* \"#utility.yul\":4364:4371   */\n      0x00\n        /* \"#utility.yul\":4393:4417   */\n      tag_197\n        /* \"#utility.yul\":4411:4416   */\n      dup3\n        /* \"#utility.yul\":4393:4417   */\n      tag_105\n      jump\t// in\n    tag_197:\n        /* \"#utility.yul\":4382:4417   */\n      swap1\n      pop\n        /* \"#utility.yul\":4327:4423   */\n      swap2\n      swap1\n      pop\n      jump\t// out\n        /* \"#utility.yul\":4429:4547   */\n    tag_107:\n        /* \"#utility.yul\":4516:4540   */\n      tag_199\n        /* \"#utility.yul\":4534:4539   */\n      dup2\n        /* \"#utility.yul\":4516:4540   */\n      tag_106\n      jump\t// in\n    tag_199:\n        /* \"#utility.yul\":4511:4514   */\n      dup3\n        /* \"#utility.yul\":4504:4541   */\n      mstore\n        /* \"#utility.yul\":4429:4547   */\n      pop\n      pop\n      jump\t// out\n        /* \"#utility.yul\":4553:4652   */\n    tag_108:\n        /* \"#utility.yul\":4605:4611   */\n      0x00\n        /* \"#utility.yul\":4639:4644   */\n      dup2\n        /* \"#utility.yul\":4633:4645   */\n      mload\n        /* \"#utility.yul\":4623:4645   */\n      swap1\n      pop\n        /* \"#utility.yul\":4553:4652   */\n      swap2\n      swap1\n      pop\n      jump\t// out\n        /* \"#utility.yul\":4658:4827   */\n    tag_109:\n        /* \"#utility.yul\":4742:4753   */\n      0x00\n        /* \"#utility.yul\":4776:4782   */\n      dup3\n        /* \"#utility.yul\":4771:4774   */\n      dup3\n        /* \"#utility.yul\":4764:4783   */\n      mstore\n        /* \"#utility.yul\":4816:4820   */\n      0x20\n        /* \"#utility.yul\":4811:4814   */\n      dup3\n        /* \"#utility.yul\":4807:4821   */\n      add\n        /* \"#utility.yul\":4792:4821   */\n      swap1\n      pop\n        /* \"#utility.yul\":4658:4827   */\n      swap3\n      swap2\n      pop\n      pop\n      jump\t// out\n        /* \"#utility.yul\":4833:5079   */\n    tag_110:\n        /* \"#utility.yul\":4914:4915   */\n      0x00\n        /* \"#utility.yul\":4924:5037   */\n    tag_203:\n        /* \"#utility.yul\":4938:4944   */\n      dup4\n        /* \"#utility.yul\":4935:4936   */\n      dup2\n        /* \"#utility.yul\":4932:4945   */\n      lt\n        /* \"#utility.yul\":4924:5037   */\n      iszero\n      tag_205\n      jumpi\n        /* \"#utility.yul\":5023:5024   */\n      dup1\n        /* \"#utility.yul\":5018:5021   */\n      dup3\n        /* \"#utility.yul\":5014:5025   */\n      add\n        /* \"#utility.yul\":5008:5026   */\n      mload\n        /* \"#utility.yul\":5004:5005   */\n      dup2\n        /* \"#utility.yul\":4999:5002   */\n      dup5\n        /* \"#utility.yul\":4995:5006   */\n      add\n        /* \"#utility.yul\":4988:5027   */\n      mstore\n        /* \"#utility.yul\":4960:4962   */\n      0x20\n        /* \"#utility.yul\":4957:4958   */\n      dup2\n        /* \"#utility.yul\":4953:4963   */\n      add\n        /* \"#utility.yul\":4948:4963   */\n      swap1\n      pop\n        /* \"#utility.yul\":4924:5037   */\n      jump(tag_203)\n    tag_205:\n        /* \"#utility.yul\":5071:5072   */\n      0x00\n        /* \"#utility.yul\":5062:5068   */\n      dup5\n        /* \"#utility.yul\":5057:5060   */\n      dup5\n        /* \"#utility.yul\":5053:5069   */\n      add\n        /* \"#utility.yul\":5046:5073   */\n      mstore\n        /* \"#utility.yul\":4895:5079   */\n      pop\n        /* \"#utility.yul\":4833:5079   */\n      pop\n      pop\n      pop\n      jump\t// out\n        /* \"#utility.yul\":5085:5462   */\n    tag_111:\n        /* \"#utility.yul\":5173:5176   */\n      0x00\n        /* \"#utility.yul\":5201:5240   */\n      tag_207\n        /* \"#utility.yul\":5234:5239   */\n      dup3\n        /* \"#utility.yul\":5201:5240   */\n      tag_108\n      jump\t// in\n    tag_207:\n        /* \"#utility.yul\":5256:5327   */\n      tag_208\n        /* \"#utility.yul\":5320:5326   */\n      dup2\n        /* \"#utility.yul\":5315:5318   */\n      dup6\n        /* \"#utility.yul\":5256:5327   */\n      tag_109\n      jump\t// in\n    tag_208:\n        /* \"#utility.yul\":5249:5327   */\n      swap4\n      pop\n        /* \"#utility.yul\":5336:5401   */\n      tag_209\n        /* \"#utility.yul\":5394:5400   */\n      dup2\n        /* \"#utility.yul\":5389:5392   */\n      dup6\n        /* \"#utility.yul\":5382:5386   */\n      0x20\n        /* \"#utility.yul\":5375:5380   */\n      dup7\n        /* \"#utility.yul\":5371:5387   */\n      add\n        /* \"#utility.yul\":5336:5401   */\n      tag_110\n      jump\t// in\n    tag_209:\n        /* \"#utility.yul\":5426:5455   */\n      tag_210\n        /* \"#utility.yul\":5448:5454   */\n      dup2\n        /* \"#utility.yul\":5426:5455   */\n      tag_94\n      jump\t// in\n    tag_210:\n        /* \"#utility.yul\":5421:5424   */\n      dup5\n        /* \"#utility.yul\":5417:5456   */\n      add\n        /* \"#utility.yul\":5410:5456   */\n      swap2\n      pop\n        /* \"#utility.yul\":5177:5462   */\n      pop\n        /* \"#utility.yul\":5085:5462   */\n      swap3\n      swap2\n      pop\n      pop\n      jump\t// out\n        /* \"#utility.yul\":5468:5586   */\n    tag_112:\n        /* \"#utility.yul\":5555:5579   */\n      tag_212\n        /* \"#utility.yul\":5573:5578   */\n      dup2\n        /* \"#utility.yul\":5555:5579   */\n      tag_102\n      jump\t// in\n    tag_212:\n        /* \"#utility.yul\":5550:5553   */\n      dup3\n        /* \"#utility.yul\":5543:5580   */\n      mstore\n        /* \"#utility.yul\":5468:5586   */\n      pop\n      pop\n      jump\t// out\n        /* \"#utility.yul\":5592:6458   */\n    tag_19:\n        /* \"#utility.yul\":5845:5849   */\n      0x00\n        /* \"#utility.yul\":5883:5886   */\n      0xc0\n        /* \"#utility.yul\":5872:5881   */\n      dup3\n        /* \"#utility.yul\":5868:5887   */\n      add\n        /* \"#utility.yul\":5860:5887   */\n      swap1\n      pop\n        /* \"#utility.yul\":5897:5968   */\n      tag_214\n        /* \"#utility.yul\":5965:5966   */\n      0x00\n        /* \"#utility.yul\":5954:5963   */\n      dup4\n        /* \"#utility.yul\":5950:5967   */\n      add\n        /* \"#utility.yul\":5941:5947   */\n      dup10\n        /* \"#utility.yul\":5897:5968   */\n      tag_107\n      jump\t// in\n    tag_214:\n        /* \"#utility.yul\":6015:6024   */\n      dup2\n        /* \"#utility.yul\":6009:6013   */\n      dup2\n        /* \"#utility.yul\":6005:6025   */\n      sub\n        /* \"#utility.yul\":6000:6002   */\n      0x20\n        /* \"#utility.yul\":5989:5998   */\n      dup4\n        /* \"#utility.yul\":5985:6003   */\n      add\n        /* \"#utility.yul\":5978:6026   */\n      mstore\n        /* \"#utility.yul\":6043:6121   */\n      tag_215\n        /* \"#utility.yul\":6116:6120   */\n      dup2\n        /* \"#utility.yul\":6107:6113   */\n      dup9\n        /* \"#utility.yul\":6043:6121   */\n      tag_111\n      jump\t// in\n    tag_215:\n        /* \"#utility.yul\":6035:6121   */\n      swap1\n      pop\n        /* \"#utility.yul\":6131:6203   */\n      tag_216\n        /* \"#utility.yul\":6199:6201   */\n      0x40\n        /* \"#utility.yul\":6188:6197   */\n      dup4\n        /* \"#utility.yul\":6184:6202   */\n      add\n        /* \"#utility.yul\":6175:6181   */\n      dup8\n        /* \"#utility.yul\":6131:6203   */\n      tag_112\n      jump\t// in\n    tag_216:\n        /* \"#utility.yul\":6213:6285   */\n      tag_217\n        /* \"#utility.yul\":6281:6283   */\n      0x60\n        /* \"#utility.yul\":6270:6279   */\n      dup4\n        /* \"#utility.yul\":6266:6284   */\n      add\n        /* \"#utility.yul\":6257:6263   */\n      dup7\n        /* \"#utility.yul\":6213:6285   */\n      tag_112\n      jump\t// in\n    tag_217:\n        /* \"#utility.yul\":6295:6368   */\n      tag_218\n        /* \"#utility.yul\":6363:6366   */\n      0x80\n        /* \"#utility.yul\":6352:6361   */\n      dup4\n        /* \"#utility.yul\":6348:6367   */\n      add\n        /* \"#utility.yul\":6339:6345   */\n      dup6\n        /* \"#utility.yul\":6295:6368   */\n      tag_112\n      jump\t// in\n    tag_218:\n        /* \"#utility.yul\":6378:6451   */\n      tag_219\n        /* \"#utility.yul\":6446:6449   */\n      0xa0\n        /* \"#utility.yul\":6435:6444   */\n      dup4\n        /* \"#utility.yul\":6431:6450   */\n      add\n        /* \"#utility.yul\":6422:6428   */\n      dup5\n        /* \"#utility.yul\":6378:6451   */\n      tag_112\n      jump\t// in\n    tag_219:\n        /* \"#utility.yul\":5592:6458   */\n      swap8\n      swap7\n      pop\n      pop\n      pop\n      pop\n      pop\n      pop\n      pop\n      jump\t// out\n        /* \"#utility.yul\":6464:6938   */\n    tag_22:\n        /* \"#utility.yul\":6532:6538   */\n      0x00\n        /* \"#utility.yul\":6540:6546   */\n      dup1\n        /* \"#utility.yul\":6589:6591   */\n      0x40\n        /* \"#utility.yul\":6577:6586   */\n      dup4\n        /* \"#utility.yul\":6568:6575   */\n      dup6\n        /* \"#utility.yul\":6564:6587   */\n      sub\n        /* \"#utility.yul\":6560:6592   */\n      slt\n        /* \"#utility.yul\":6557:6676   */\n      iszero\n      tag_221\n      jumpi\n        /* \"#utility.yul\":6595:6674   */\n      tag_222\n      tag_90\n      jump\t// in\n    tag_222:\n        /* \"#utility.yul\":6557:6676   */\n    tag_221:\n        /* \"#utility.yul\":6715:6716   */\n      0x00\n        /* \"#utility.yul\":6740:6793   */\n      tag_223\n        /* \"#utility.yul\":6785:6792   */\n      dup6\n        /* \"#utility.yul\":6776:6782   */\n      dup3\n        /* \"#utility.yul\":6765:6774   */\n      dup7\n        /* \"#utility.yul\":6761:6783   */\n      add\n        /* \"#utility.yul\":6740:6793   */\n      tag_104\n      jump\t// in\n    tag_223:\n        /* \"#utility.yul\":6730:6793   */\n      swap3\n      pop\n        /* \"#utility.yul\":6686:6803   */\n      pop\n        /* \"#utility.yul\":6842:6844   */\n      0x20\n        /* \"#utility.yul\":6868:6921   */\n      tag_224\n        /* \"#utility.yul\":6913:6920   */\n      dup6\n        /* \"#utility.yul\":6904:6910   */\n      dup3\n        /* \"#utility.yul\":6893:6902   */\n      dup7\n        /* \"#utility.yul\":6889:6911   */\n      add\n        /* \"#utility.yul\":6868:6921   */\n      tag_104\n      jump\t// in\n    tag_224:\n        /* \"#utility.yul\":6858:6921   */\n      swap2\n      pop\n        /* \"#utility.yul\":6813:6931   */\n      pop\n        /* \"#utility.yul\":6464:6938   */\n      swap3\n      pop\n      swap3\n      swap1\n      pop\n      jump\t// out\n        /* \"#utility.yul\":6944:7166   */\n    tag_28:\n        /* \"#utility.yul\":7037:7041   */\n      0x00\n        /* \"#utility.yul\":7075:7077   */\n      0x20\n        /* \"#utility.yul\":7064:7073   */\n      dup3\n        /* \"#utility.yul\":7060:7078   */\n      add\n        /* \"#utility.yul\":7052:7078   */\n      swap1\n      pop\n        /* \"#utility.yul\":7088:7159   */\n      tag_226\n        /* \"#utility.yul\":7156:7157   */\n      0x00\n        /* \"#utility.yul\":7145:7154   */\n      dup4\n        /* \"#utility.yul\":7141:7158   */\n      add\n        /* \"#utility.yul\":7132:7138   */\n      dup5\n        /* \"#utility.yul\":7088:7159   */\n      tag_112\n      jump\t// in\n    tag_226:\n        /* \"#utility.yul\":6944:7166   */\n      swap3\n      swap2\n      pop\n      pop\n      jump\t// out\n        /* \"#utility.yul\":7172:7294   */\n    tag_113:\n        /* \"#utility.yul\":7245:7269   */\n      tag_228\n        /* \"#utility.yul\":7263:7268   */\n      dup2\n        /* \"#utility.yul\":7245:7269   */\n      tag_106\n      jump\t// in\n    tag_228:\n        /* \"#utility.yul\":7238:7243   */\n      dup2\n        /* \"#utility.yul\":7235:7270   */\n      eq\n        /* \"#utility.yul\":7225:7288   */\n      tag_229\n      jumpi\n        /* \"#utility.yul\":7284:7285   */\n      0x00\n        /* \"#utility.yul\":7281:7282   */\n      dup1\n        /* \"#utility.yul\":7274:7286   */\n      revert\n        /* \"#utility.yul\":7225:7288   */\n    tag_229:\n        /* \"#utility.yul\":7172:7294   */\n      pop\n      jump\t// out\n        /* \"#utility.yul\":7300:7439   */\n    tag_114:\n        /* \"#utility.yul\":7346:7351   */\n      0x00\n        /* \"#utility.yul\":7384:7390   */\n      dup2\n        /* \"#utility.yul\":7371:7391   */\n      calldataload\n        /* \"#utility.yul\":7362:7391   */\n      swap1\n      pop\n        /* \"#utility.yul\":7400:7433   */\n      tag_231\n        /* \"#utility.yul\":7427:7432   */\n      dup2\n        /* \"#utility.yul\":7400:7433   */\n      tag_113\n      jump\t// in\n    tag_231:\n        /* \"#utility.yul\":7300:7439   */\n      swap3\n      swap2\n      pop\n      pop\n      jump\t// out\n        /* \"#utility.yul\":7445:7919   */\n    tag_32:\n        /* \"#utility.yul\":7513:7519   */\n      0x00\n        /* \"#utility.yul\":7521:7527   */\n      dup1\n        /* \"#utility.yul\":7570:7572   */\n      0x40\n        /* \"#utility.yul\":7558:7567   */\n      dup4\n        /* \"#utility.yul\":7549:7556   */\n      dup6\n        /* \"#utility.yul\":7545:7568   */\n      sub\n        /* \"#utility.yul\":7541:7573   */\n      slt\n        /* \"#utility.yul\":7538:7657   */\n      iszero\n      tag_233\n      jumpi\n        /* \"#utility.yul\":7576:7655   */\n      tag_234\n      tag_90\n      jump\t// in\n    tag_234:\n        /* \"#utility.yul\":7538:7657   */\n    tag_233:\n        /* \"#utility.yul\":7696:7697   */\n      0x00\n        /* \"#utility.yul\":7721:7774   */\n      tag_235\n        /* \"#utility.yul\":7766:7773   */\n      dup6\n        /* \"#utility.yul\":7757:7763   */\n      dup3\n        /* \"#utility.yul\":7746:7755   */\n      dup7\n        /* \"#utility.yul\":7742:7764   */\n      add\n        /* \"#utility.yul\":7721:7774   */\n      tag_114\n      jump\t// in\n    tag_235:\n        /* \"#utility.yul\":7711:7774   */\n      swap3\n      pop\n        /* \"#utility.yul\":7667:7784   */\n      pop\n        /* \"#utility.yul\":7823:7825   */\n      0x20\n        /* \"#utility.yul\":7849:7902   */\n      tag_236\n        /* \"#utility.yul\":7894:7901   */\n      dup6\n        /* \"#utility.yul\":7885:7891   */\n      dup3\n        /* \"#utility.yul\":7874:7883   */\n      dup7\n        /* \"#utility.yul\":7870:7892   */\n      add\n        /* \"#utility.yul\":7849:7902   */\n      tag_104\n      jump\t// in\n    tag_236:\n        /* \"#utility.yul\":7839:7902   */\n      swap2\n      pop\n        /* \"#utility.yul\":7794:7912   */\n      pop\n        /* \"#utility.yul\":7445:7919   */\n      swap3\n      pop\n      swap3\n      swap1\n      pop\n      jump\t// out\n        /* \"#utility.yul\":7925:8544   */\n    tag_38:\n        /* \"#utility.yul\":8002:8008   */\n      0x00\n        /* \"#utility.yul\":8010:8016   */\n      dup1\n        /* \"#utility.yul\":8018:8024   */\n      0x00\n        /* \"#utility.yul\":8067:8069   */\n      0x60\n        /* \"#utility.yul\":8055:8064   */\n      dup5\n        /* \"#utility.yul\":8046:8053   */\n      dup7\n        /* \"#utility.yul\":8042:8065   */\n      sub\n        /* \"#utility.yul\":8038:8070   */\n      slt\n        /* \"#utility.yul\":8035:8154   */\n      iszero\n      tag_238\n      jumpi\n        /* \"#utility.yul\":8073:8152   */\n      tag_239\n      tag_90\n      jump\t// in\n    tag_239:\n        /* \"#utility.yul\":8035:8154   */\n    tag_238:\n        /* \"#utility.yul\":8193:8194   */\n      0x00\n        /* \"#utility.yul\":8218:8271   */\n      tag_240\n        /* \"#utility.yul\":8263:8270   */\n      dup7\n        /* \"#utility.yul\":8254:8260   */\n      dup3\n        /* \"#utility.yul\":8243:8252   */\n      dup8\n        /* \"#utility.yul\":8239:8261   */\n      add\n        /* \"#utility.yul\":8218:8271   */\n      tag_104\n      jump\t// in\n    tag_240:\n        /* \"#utility.yul\":8208:8271   */\n      swap4\n      pop\n        /* \"#utility.yul\":8164:8281   */\n      pop\n        /* \"#utility.yul\":8320:8322   */\n      0x20\n        /* \"#utility.yul\":8346:8399   */\n      tag_241\n        /* \"#utility.yul\":8391:8398   */\n      dup7\n        /* \"#utility.yul\":8382:8388   */\n      dup3\n        /* \"#utility.yul\":8371:8380   */\n      dup8\n        /* \"#utility.yul\":8367:8389   */\n      add\n        /* \"#utility.yul\":8346:8399   */\n      tag_104\n      jump\t// in\n    tag_241:\n        /* \"#utility.yul\":8336:8399   */\n      swap3\n      pop\n        /* \"#utility.yul\":8291:8409   */\n      pop\n        /* \"#utility.yul\":8448:8450   */\n      0x40\n        /* \"#utility.yul\":8474:8527   */\n      tag_242\n        /* \"#utility.yul\":8519:8526   */\n      dup7\n        /* \"#utility.yul\":8510:8516   */\n      dup3\n        /* \"#utility.yul\":8499:8508   */\n      dup8\n        /* \"#utility.yul\":8495:8517   */\n      add\n        /* \"#utility.yul\":8474:8527   */\n      tag_114\n      jump\t// in\n    tag_242:\n        /* \"#utility.yul\":8464:8527   */\n      swap2\n      pop\n        /* \"#utility.yul\":8419:8537   */\n      pop\n        /* \"#utility.yul\":7925:8544   */\n      swap3\n      pop\n      swap3\n      pop\n      swap3\n      jump\t// out\n        /* \"#utility.yul\":8550:8781   */\n    tag_115:\n        /* \"#utility.yul\":8690:8724   */\n      0x596f752063616e206f6e6c79206f7267616e697a65206576656e7420666f7220\n        /* \"#utility.yul\":8686:8687   */\n      0x00\n        /* \"#utility.yul\":8678:8684   */\n      dup3\n        /* \"#utility.yul\":8674:8688   */\n      add\n        /* \"#utility.yul\":8667:8725   */\n      mstore\n        /* \"#utility.yul\":8759:8773   */\n      0x6675747572652064617465730000000000000000000000000000000000000000\n        /* \"#utility.yul\":8754:8756   */\n      0x20\n        /* \"#utility.yul\":8746:8752   */\n      dup3\n        /* \"#utility.yul\":8742:8757   */\n      add\n        /* \"#utility.yul\":8735:8774   */\n      mstore\n        /* \"#utility.yul\":8550:8781   */\n      pop\n      jump\t// out\n        /* \"#utility.yul\":8787:9153   */\n    tag_116:\n        /* \"#utility.yul\":8929:8932   */\n      0x00\n        /* \"#utility.yul\":8950:9017   */\n      tag_245\n        /* \"#utility.yul\":9014:9016   */\n      0x2c\n        /* \"#utility.yul\":9009:9012   */\n      dup4\n        /* \"#utility.yul\":8950:9017   */\n      tag_109\n      jump\t// in\n    tag_245:\n        /* \"#utility.yul\":8943:9017   */\n      swap2\n      pop\n        /* \"#utility.yul\":9026:9119   */\n      tag_246\n        /* \"#utility.yul\":9115:9118   */\n      dup3\n        /* \"#utility.yul\":9026:9119   */\n      tag_115\n      jump\t// in\n    tag_246:\n        /* \"#utility.yul\":9144:9146   */\n      0x40\n        /* \"#utility.yul\":9139:9142   */\n      dup3\n        /* \"#utility.yul\":9135:9147   */\n      add\n        /* \"#utility.yul\":9128:9147   */\n      swap1\n      pop\n        /* \"#utility.yul\":8787:9153   */\n      swap2\n      swap1\n      pop\n      jump\t// out\n        /* \"#utility.yul\":9159:9578   */\n    tag_43:\n        /* \"#utility.yul\":9325:9329   */\n      0x00\n        /* \"#utility.yul\":9363:9365   */\n      0x20\n        /* \"#utility.yul\":9352:9361   */\n      dup3\n        /* \"#utility.yul\":9348:9366   */\n      add\n        /* \"#utility.yul\":9340:9366   */\n      swap1\n      pop\n        /* \"#utility.yul\":9412:9421   */\n      dup2\n        /* \"#utility.yul\":9406:9410   */\n      dup2\n        /* \"#utility.yul\":9402:9422   */\n      sub\n        /* \"#utility.yul\":9398:9399   */\n      0x00\n        /* \"#utility.yul\":9387:9396   */\n      dup4\n        /* \"#utility.yul\":9383:9400   */\n      add\n        /* \"#utility.yul\":9376:9423   */\n      mstore\n        /* \"#utility.yul\":9440:9571   */\n      tag_248\n        /* \"#utility.yul\":9566:9570   */\n      dup2\n        /* \"#utility.yul\":9440:9571   */\n      tag_116\n      jump\t// in\n    tag_248:\n        /* \"#utility.yul\":9432:9571   */\n      swap1\n      pop\n        /* \"#utility.yul\":9159:9578   */\n      swap2\n      swap1\n      pop\n      jump\t// out\n        /* \"#utility.yul\":9584:9832   */\n    tag_117:\n        /* \"#utility.yul\":9724:9758   */\n      0x596f752063616e206f6e6c79206f7267616e697a65206576656e742069662079\n        /* \"#utility.yul\":9720:9721   */\n      0x00\n        /* \"#utility.yul\":9712:9718   */\n      dup3\n        /* \"#utility.yul\":9708:9722   */\n      add\n        /* \"#utility.yul\":9701:9759   */\n      mstore\n        /* \"#utility.yul\":9793:9824   */\n      0x6f7520637265617465206d6f7265207468616e2030207469636b657473000000\n        /* \"#utility.yul\":9788:9790   */\n      0x20\n        /* \"#utility.yul\":9780:9786   */\n      dup3\n        /* \"#utility.yul\":9776:9791   */\n      add\n        /* \"#utility.yul\":9769:9825   */\n      mstore\n        /* \"#utility.yul\":9584:9832   */\n      pop\n      jump\t// out\n        /* \"#utility.yul\":9838:10204   */\n    tag_118:\n        /* \"#utility.yul\":9980:9983   */\n      0x00\n        /* \"#utility.yul\":10001:10068   */\n      tag_251\n        /* \"#utility.yul\":10065:10067   */\n      0x3d\n        /* \"#utility.yul\":10060:10063   */\n      dup4\n        /* \"#utility.yul\":10001:10068   */\n      tag_109\n      jump\t// in\n    tag_251:\n        /* \"#utility.yul\":9994:10068   */\n      swap2\n      pop\n        /* \"#utility.yul\":10077:10170   */\n      tag_252\n        /* \"#utility.yul\":10166:10169   */\n      dup3\n        /* \"#utility.yul\":10077:10170   */\n      tag_117\n      jump\t// in\n    tag_252:\n        /* \"#utility.yul\":10195:10197   */\n      0x40\n        /* \"#utility.yul\":10190:10193   */\n      dup3\n        /* \"#utility.yul\":10186:10198   */\n      add\n        /* \"#utility.yul\":10179:10198   */\n      swap1\n      pop\n        /* \"#utility.yul\":9838:10204   */\n      swap2\n      swap1\n      pop\n      jump\t// out\n        /* \"#utility.yul\":10210:10629   */\n    tag_46:\n        /* \"#utility.yul\":10376:10380   */\n      0x00\n        /* \"#utility.yul\":10414:10416   */\n      0x20\n        /* \"#utility.yul\":10403:10412   */\n      dup3\n        /* \"#utility.yul\":10399:10417   */\n      add\n        /* \"#utility.yul\":10391:10417   */\n      swap1\n      pop\n        /* \"#utility.yul\":10463:10472   */\n      dup2\n        /* \"#utility.yul\":10457:10461   */\n      dup2\n        /* \"#utility.yul\":10453:10473   */\n      sub\n        /* \"#utility.yul\":10449:10450   */\n      0x00\n        /* \"#utility.yul\":10438:10447   */\n      dup4\n        /* \"#utility.yul\":10434:10451   */\n      add\n        /* \"#utility.yul\":10427:10474   */\n      mstore\n        /* \"#utility.yul\":10491:10622   */\n      tag_254\n        /* \"#utility.yul\":10617:10621   */\n      dup2\n        /* \"#utility.yul\":10491:10622   */\n      tag_118\n      jump\t// in\n    tag_254:\n        /* \"#utility.yul\":10483:10622   */\n      swap1\n      pop\n        /* \"#utility.yul\":10210:10629   */\n      swap2\n      swap1\n      pop\n      jump\t// out\n        /* \"#utility.yul\":10635:10815   */\n    tag_119:\n        /* \"#utility.yul\":10683:10760   */\n      0x4e487b7100000000000000000000000000000000000000000000000000000000\n        /* \"#utility.yul\":10680:10681   */\n      0x00\n        /* \"#utility.yul\":10673:10761   */\n      mstore\n        /* \"#utility.yul\":10780:10784   */\n      0x22\n        /* \"#utility.yul\":10777:10778   */\n      0x04\n        /* \"#utility.yul\":10770:10785   */\n      mstore\n        /* \"#utility.yul\":10804:10808   */\n      0x24\n        /* \"#utility.yul\":10801:10802   */\n      0x00\n        /* \"#utility.yul\":10794:10809   */\n      revert\n        /* \"#utility.yul\":10821:11141   */\n    tag_52:\n        /* \"#utility.yul\":10865:10871   */\n      0x00\n        /* \"#utility.yul\":10902:10903   */\n      0x02\n        /* \"#utility.yul\":10896:10900   */\n      dup3\n        /* \"#utility.yul\":10892:10904   */\n      div\n        /* \"#utility.yul\":10882:10904   */\n      swap1\n      pop\n        /* \"#utility.yul\":10949:10950   */\n      0x01\n        /* \"#utility.yul\":10943:10947   */\n      dup3\n        /* \"#utility.yul\":10939:10951   */\n      and\n        /* \"#utility.yul\":10970:10988   */\n      dup1\n        /* \"#utility.yul\":10960:11041   */\n      tag_257\n      jumpi\n        /* \"#utility.yul\":11026:11030   */\n      0x7f\n        /* \"#utility.yul\":11018:11024   */\n      dup3\n        /* \"#utility.yul\":11014:11031   */\n      and\n        /* \"#utility.yul\":11004:11031   */\n      swap2\n      pop\n        /* \"#utility.yul\":10960:11041   */\n    tag_257:\n        /* \"#utility.yul\":11088:11090   */\n      0x20\n        /* \"#utility.yul\":11080:11086   */\n      dup3\n        /* \"#utility.yul\":11077:11091   */\n      lt\n        /* \"#utility.yul\":11057:11075   */\n      dup2\n        /* \"#utility.yul\":11054:11092   */\n      sub\n        /* \"#utility.yul\":11051:11135   */\n      tag_258\n      jumpi\n        /* \"#utility.yul\":11107:11125   */\n      tag_259\n      tag_119\n      jump\t// in\n    tag_259:\n        /* \"#utility.yul\":11051:11135   */\n    tag_258:\n        /* \"#utility.yul\":10872:11141   */\n      pop\n        /* \"#utility.yul\":10821:11141   */\n      swap2\n      swap1\n      pop\n      jump\t// out\n        /* \"#utility.yul\":11147:11288   */\n    tag_120:\n        /* \"#utility.yul\":11196:11200   */\n      0x00\n        /* \"#utility.yul\":11219:11222   */\n      dup2\n        /* \"#utility.yul\":11211:11222   */\n      swap1\n      pop\n        /* \"#utility.yul\":11242:11245   */\n      dup2\n        /* \"#utility.yul\":11239:11240   */\n      0x00\n        /* \"#utility.yul\":11232:11246   */\n      mstore\n        /* \"#utility.yul\":11276:11280   */\n      0x20\n        /* \"#utility.yul\":11273:11274   */\n      0x00\n        /* \"#utility.yul\":11263:11281   */\n      keccak256\n        /* \"#utility.yul\":11255:11281   */\n      swap1\n      pop\n        /* \"#utility.yul\":11147:11288   */\n      swap2\n      swap1\n      pop\n      jump\t// out\n        /* \"#utility.yul\":11294:11387   */\n    tag_121:\n        /* \"#utility.yul\":11331:11337   */\n      0x00\n        /* \"#utility.yul\":11378:11380   */\n      0x20\n        /* \"#utility.yul\":11373:11375   */\n      0x1f\n        /* \"#utility.yul\":11366:11371   */\n      dup4\n        /* \"#utility.yul\":11362:11376   */\n      add\n        /* \"#utility.yul\":11358:11381   */\n      div\n        /* \"#utility.yul\":11348:11381   */\n      swap1\n      pop\n        /* \"#utility.yul\":11294:11387   */\n      swap2\n      swap1\n      pop\n      jump\t// out\n        /* \"#utility.yul\":11393:11500   */\n    tag_122:\n        /* \"#utility.yul\":11437:11445   */\n      0x00\n        /* \"#utility.yul\":11487:11492   */\n      dup3\n        /* \"#utility.yul\":11481:11485   */\n      dup3\n        /* \"#utility.yul\":11477:11493   */\n      shl\n        /* \"#utility.yul\":11456:11493   */\n      swap1\n      pop\n        /* \"#utility.yul\":11393:11500   */\n      swap3\n      swap2\n      pop\n      pop\n      jump\t// out\n        /* \"#utility.yul\":11506:11899   */\n    tag_123:\n        /* \"#utility.yul\":11575:11581   */\n      0x00\n        /* \"#utility.yul\":11625:11626   */\n      0x08\n        /* \"#utility.yul\":11613:11623   */\n      dup4\n        /* \"#utility.yul\":11609:11627   */\n      mul\n        /* \"#utility.yul\":11648:11745   */\n      tag_264\n        /* \"#utility.yul\":11678:11744   */\n      0xffffffffffffffffffffffffffffffffffffffffffffffffffffffffffffffff\n        /* \"#utility.yul\":11667:11676   */\n      dup3\n        /* \"#utility.yul\":11648:11745   */\n      tag_122\n      jump\t// in\n    tag_264:\n        /* \"#utility.yul\":11766:11805   */\n      tag_265\n        /* \"#utility.yul\":11796:11804   */\n      dup7\n        /* \"#utility.yul\":11785:11794   */\n      dup4\n        /* \"#utility.yul\":11766:11805   */\n      tag_122\n      jump\t// in\n    tag_265:\n        /* \"#utility.yul\":11754:11805   */\n      swap6\n      pop\n        /* \"#utility.yul\":11838:11842   */\n      dup1\n        /* \"#utility.yul\":11834:11843   */\n      not\n        /* \"#utility.yul\":11827:11832   */\n      dup5\n        /* \"#utility.yul\":11823:11844   */\n      and\n        /* \"#utility.yul\":11814:11844   */\n      swap4\n      pop\n        /* \"#utility.yul\":11887:11891   */\n      dup1\n        /* \"#utility.yul\":11877:11885   */\n      dup7\n        /* \"#utility.yul\":11873:11892   */\n      and\n        /* \"#utility.yul\":11866:11871   */\n      dup5\n        /* \"#utility.yul\":11863:11893   */\n      or\n        /* \"#utility.yul\":11853:11893   */\n      swap3\n      pop\n        /* \"#utility.yul\":11582:11899   */\n      pop\n      pop\n        /* \"#utility.yul\":11506:11899   */\n      swap4\n      swap3\n      pop\n      pop\n      pop\n      jump\t// out\n        /* \"#utility.yul\":11905:11965   */\n    tag_124:\n        /* \"#utility.yul\":11933:11936   */\n      0x00\n        /* \"#utility.yul\":11954:11959   */\n      dup2\n        /* \"#utility.yul\":11947:11959   */\n      swap1\n      pop\n        /* \"#utility.yul\":11905:11965   */\n      swap2\n      swap1\n      pop\n      jump\t// out\n        /* \"#utility.yul\":11971:12113   */\n    tag_125:\n        /* \"#utility.yul\":12021:12030   */\n      0x00\n        /* \"#utility.yul\":12054:12107   */\n      tag_268\n        /* \"#utility.yul\":12072:12106   */\n      tag_269\n        /* \"#utility.yul\":12081:12105   */\n      tag_270\n        /* \"#utility.yul\":12099:12104   */\n      dup5\n        /* \"#utility.yul\":12081:12105   */\n      tag_102\n      jump\t// in\n    tag_270:\n        /* \"#utility.yul\":12072:12106   */\n      tag_124\n      jump\t// in\n    tag_269:\n        /* \"#utility.yul\":12054:12107   */\n      tag_102\n      jump\t// in\n    tag_268:\n        /* \"#utility.yul\":12041:12107   */\n      swap1\n      pop\n        /* \"#utility.yul\":11971:12113   */\n      swap2\n      swap1\n      pop\n      jump\t// out\n        /* \"#utility.yul\":12119:12194   */\n    tag_126:\n        /* \"#utility.yul\":12162:12165   */\n      0x00\n        /* \"#utility.yul\":12183:12188   */\n      dup2\n        /* \"#utility.yul\":12176:12188   */\n      swap1\n      pop\n        /* \"#utility.yul\":12119:12194   */\n      swap2\n      swap1\n      pop\n      jump\t// out\n        /* \"#utility.yul\":12200:12469   */\n    tag_127:\n        /* \"#utility.yul\":12310:12349   */\n      tag_273\n        /* \"#utility.yul\":12341:12348   */\n      dup4\n        /* \"#utility.yul\":12310:12349   */\n      tag_125\n      jump\t// in\n    tag_273:\n        /* \"#utility.yul\":12371:12462   */\n      tag_274\n        /* \"#utility.yul\":12420:12461   */\n      tag_275\n        /* \"#utility.yul\":12444:12460   */\n      dup3\n        /* \"#utility.yul\":12420:12461   */\n      tag_126\n      jump\t// in\n    tag_275:\n        /* \"#utility.yul\":12412:12418   */\n      dup5\n        /* \"#utility.yul\":12405:12409   */\n      dup5\n        /* \"#utility.yul\":12399:12410   */\n      sload\n        /* \"#utility.yul\":12371:12462   */\n      tag_123\n      jump\t// in\n    tag_274:\n        /* \"#utility.yul\":12365:12369   */\n      dup3\n        /* \"#utility.yul\":12358:12463   */\n      sstore\n        /* \"#utility.yul\":12276:12469   */\n      pop\n        /* \"#utility.yul\":12200:12469   */\n      pop\n      pop\n      pop\n      jump\t// out\n        /* \"#utility.yul\":12475:12548   */\n    tag_128:\n        /* \"#utility.yul\":12520:12523   */\n      0x00\n        /* \"#utility.yul\":12475:12548   */\n      swap1\n      jump\t// out\n        /* \"#utility.yul\":12554:12743   */\n    tag_129:\n        /* \"#utility.yul\":12631:12663   */\n      tag_278\n      tag_128\n      jump\t// in\n    tag_278:\n        /* \"#utility.yul\":12672:12737   */\n      tag_279\n        /* \"#utility.yul\":12730:12736   */\n      dup2\n        /* \"#utility.yul\":12722:12728   */\n      dup5\n        /* \"#utility.yul\":12716:12720   */\n      dup5\n        /* \"#utility.yul\":12672:12737   */\n      tag_127\n      jump\t// in\n    tag_279:\n        /* \"#utility.yul\":12607:12743   */\n      pop\n        /* \"#utility.yul\":12554:12743   */\n      pop\n      pop\n      jump\t// out\n        /* \"#utility.yul\":12749:12935   */\n    tag_130:\n        /* \"#utility.yul\":12809:12929   */\n    tag_281:\n        /* \"#utility.yul\":12826:12829   */\n      dup2\n        /* \"#utility.yul\":12819:12824   */\n      dup2\n        /* \"#utility.yul\":12816:12830   */\n      lt\n        /* \"#utility.yul\":12809:12929   */\n      iszero\n      tag_283\n      jumpi\n        /* \"#utility.yul\":12880:12919   */\n      tag_284\n        /* \"#utility.yul\":12917:12918   */\n      0x00\n        /* \"#utility.yul\":12910:12915   */\n      dup3\n        /* \"#utility.yul\":12880:12919   */\n      tag_129\n      jump\t// in\n    tag_284:\n        /* \"#utility.yul\":12853:12854   */\n      0x01\n        /* \"#utility.yul\":12846:12851   */\n      dup2\n        /* \"#utility.yul\":12842:12855   */\n      add\n        /* \"#utility.yul\":12833:12855   */\n      swap1\n      pop\n        /* \"#utility.yul\":12809:12929   */\n      jump(tag_281)\n    tag_283:\n        /* \"#utility.yul\":12749:12935   */\n      pop\n      pop\n      jump\t// out\n        /* \"#utility.yul\":12941:13484   */\n    tag_131:\n        /* \"#utility.yul\":13042:13044   */\n      0x1f\n        /* \"#utility.yul\":13037:13040   */\n      dup3\n        /* \"#utility.yul\":13034:13045   */\n      gt\n        /* \"#utility.yul\":13031:13477   */\n      iszero\n      tag_286\n      jumpi\n        /* \"#utility.yul\":13076:13114   */\n      tag_287\n        /* \"#utility.yul\":13108:13113   */\n      dup2\n        /* \"#utility.yul\":13076:13114   */\n      tag_120\n      jump\t// in\n    tag_287:\n        /* \"#utility.yul\":13160:13189   */\n      tag_288\n        /* \"#utility.yul\":13178:13188   */\n      dup5\n        /* \"#utility.yul\":13160:13189   */\n      tag_121\n      jump\t// in\n    tag_288:\n        /* \"#utility.yul\":13150:13158   */\n      dup2\n        /* \"#utility.yul\":13146:13190   */\n      add\n        /* \"#utility.yul\":13343:13345   */\n      0x20\n        /* \"#utility.yul\":13331:13341   */\n      dup6\n        /* \"#utility.yul\":13328:13346   */\n      lt\n        /* \"#utility.yul\":13325:13374   */\n      iszero\n      tag_289\n      jumpi\n        /* \"#utility.yul\":13364:13372   */\n      dup2\n        /* \"#utility.yul\":13349:13372   */\n      swap1\n      pop\n        /* \"#utility.yul\":13325:13374   */\n    tag_289:\n        /* \"#utility.yul\":13387:13467   */\n      tag_290\n        /* \"#utility.yul\":13443:13465   */\n      tag_291\n        /* \"#utility.yul\":13461:13464   */\n      dup6\n        /* \"#utility.yul\":13443:13465   */\n      tag_121\n      jump\t// in\n    tag_291:\n        /* \"#utility.yul\":13433:13441   */\n      dup4\n        /* \"#utility.yul\":13429:13466   */\n      add\n        /* \"#utility.yul\":13416:13427   */\n      dup3\n        /* \"#utility.yul\":13387:13467   */\n      tag_130\n      jump\t// in\n    tag_290:\n        /* \"#utility.yul\":13046:13477   */\n      pop\n      pop\n        /* \"#utility.yul\":13031:13477   */\n    tag_286:\n        /* \"#utility.yul\":12941:13484   */\n      pop\n      pop\n      pop\n      jump\t// out\n        /* \"#utility.yul\":13490:13607   */\n    tag_132:\n        /* \"#utility.yul\":13544:13552   */\n      0x00\n        /* \"#utility.yul\":13594:13599   */\n      dup3\n        /* \"#utility.yul\":13588:13592   */\n      dup3\n        /* \"#utility.yul\":13584:13600   */\n      shr\n        /* \"#utility.yul\":13563:13600   */\n      swap1\n      pop\n        /* \"#utility.yul\":13490:13607   */\n      swap3\n      swap2\n      pop\n      pop\n      jump\t// out\n        /* \"#utility.yul\":13613:13782   */\n    tag_133:\n        /* \"#utility.yul\":13657:13663   */\n      0x00\n        /* \"#utility.yul\":13690:13741   */\n      tag_294\n        /* \"#utility.yul\":13738:13739   */\n      0x00\n        /* \"#utility.yul\":13734:13740   */\n      not\n        /* \"#utility.yul\":13726:13731   */\n      dup5\n        /* \"#utility.yul\":13723:13724   */\n      0x08\n        /* \"#utility.yul\":13719:13732   */\n      mul\n        /* \"#utility.yul\":13690:13741   */\n      tag_132\n      jump\t// in\n    tag_294:\n        /* \"#utility.yul\":13686:13742   */\n      not\n        /* \"#utility.yul\":13771:13775   */\n      dup1\n        /* \"#utility.yul\":13765:13769   */\n      dup4\n        /* \"#utility.yul\":13761:13776   */\n      and\n        /* \"#utility.yul\":13751:13776   */\n      swap2\n      pop\n        /* \"#utility.yul\":13664:13782   */\n      pop\n        /* \"#utility.yul\":13613:13782   */\n      swap3\n      swap2\n      pop\n      pop\n      jump\t// out\n        /* \"#utility.yul\":13787:14082   */\n    tag_134:\n        /* \"#utility.yul\":13863:13867   */\n      0x00\n        /* \"#utility.yul\":14009:14038   */\n      tag_296\n        /* \"#utility.yul\":14034:14037   */\n      dup4\n        /* \"#utility.yul\":14028:14032   */\n      dup4\n        /* \"#utility.yul\":14009:14038   */\n      tag_133\n      jump\t// in\n    tag_296:\n        /* \"#utility.yul\":14001:14038   */\n      swap2\n      pop\n        /* \"#utility.yul\":14071:14074   */\n      dup3\n        /* \"#utility.yul\":14068:14069   */\n      0x02\n        /* \"#utility.yul\":14064:14075   */\n      mul\n        /* \"#utility.yul\":14058:14062   */\n      dup3\n        /* \"#utility.yul\":14055:14076   */\n      or\n        /* \"#utility.yul\":14047:14076   */\n      swap1\n      pop\n        /* \"#utility.yul\":13787:14082   */\n      swap3\n      swap2\n      pop\n      pop\n      jump\t// out\n        /* \"#utility.yul\":14087:15482   */\n    tag_48:\n        /* \"#utility.yul\":14204:14241   */\n      tag_298\n        /* \"#utility.yul\":14237:14240   */\n      dup3\n        /* \"#utility.yul\":14204:14241   */\n      tag_108\n      jump\t// in\n    tag_298:\n        /* \"#utility.yul\":14306:14324   */\n      0xffffffffffffffff\n        /* \"#utility.yul\":14298:14304   */\n      dup2\n        /* \"#utility.yul\":14295:14325   */\n      gt\n        /* \"#utility.yul\":14292:14348   */\n      iszero\n      tag_299\n      jumpi\n        /* \"#utility.yul\":14328:14346   */\n      tag_300\n      tag_95\n      jump\t// in\n    tag_300:\n        /* \"#utility.yul\":14292:14348   */\n    tag_299:\n        /* \"#utility.yul\":14372:14410   */\n      tag_301\n        /* \"#utility.yul\":14404:14408   */\n      dup3\n        /* \"#utility.yul\":14398:14409   */\n      sload\n        /* \"#utility.yul\":14372:14410   */\n      tag_52\n      jump\t// in\n    tag_301:\n        /* \"#utility.yul\":14457:14524   */\n      tag_302\n        /* \"#utility.yul\":14517:14523   */\n      dup3\n        /* \"#utility.yul\":14509:14515   */\n      dup3\n        /* \"#utility.yul\":14503:14507   */\n      dup6\n        /* \"#utility.yul\":14457:14524   */\n      tag_131\n      jump\t// in\n    tag_302:\n        /* \"#utility.yul\":14551:14552   */\n      0x00\n        /* \"#utility.yul\":14575:14579   */\n      0x20\n        /* \"#utility.yul\":14562:14579   */\n      swap1\n      pop\n        /* \"#utility.yul\":14607:14609   */\n      0x1f\n        /* \"#utility.yul\":14599:14605   */\n      dup4\n        /* \"#utility.yul\":14596:14610   */\n      gt\n        /* \"#utility.yul\":14624:14625   */\n      0x01\n        /* \"#utility.yul\":14619:15237   */\n      dup2\n      eq\n      tag_304\n      jumpi\n        /* \"#utility.yul\":15281:15282   */\n      0x00\n        /* \"#utility.yul\":15298:15304   */\n      dup5\n        /* \"#utility.yul\":15295:15372   */\n      iszero\n      tag_305\n      jumpi\n        /* \"#utility.yul\":15347:15356   */\n      dup3\n        /* \"#utility.yul\":15342:15345   */\n      dup8\n        /* \"#utility.yul\":15338:15357   */\n      add\n        /* \"#utility.yul\":15332:15358   */\n      mload\n        /* \"#utility.yul\":15323:15358   */\n      swap1\n      pop\n        /* \"#utility.yul\":15295:15372   */\n    tag_305:\n        /* \"#utility.yul\":15398:15465   */\n      tag_306\n        /* \"#utility.yul\":15458:15464   */\n      dup6\n        /* \"#utility.yul\":15451:15456   */\n      dup3\n        /* \"#utility.yul\":15398:15465   */\n      tag_134\n      jump\t// in\n    tag_306:\n        /* \"#utility.yul\":15392:15396   */\n      dup7\n        /* \"#utility.yul\":15385:15466   */\n      sstore\n        /* \"#utility.yul\":15254:15476   */\n      pop\n        /* \"#utility.yul\":14589:15476   */\n      jump(tag_303)\n        /* \"#utility.yul\":14619:15237   */\n    tag_304:\n        /* \"#utility.yul\":14671:14675   */\n      0x1f\n        /* \"#utility.yul\":14667:14676   */\n      not\n        /* \"#utility.yul\":14659:14665   */\n      dup5\n        /* \"#utility.yul\":14655:14677   */\n      and\n        /* \"#utility.yul\":14705:14742   */\n      tag_307\n        /* \"#utility.yul\":14737:14741   */\n      dup7\n        /* \"#utility.yul\":14705:14742   */\n      tag_120\n      jump\t// in\n    tag_307:\n        /* \"#utility.yul\":14764:14765   */\n      0x00\n        /* \"#utility.yul\":14778:14986   */\n    tag_308:\n        /* \"#utility.yul\":14792:14799   */\n      dup3\n        /* \"#utility.yul\":14789:14790   */\n      dup2\n        /* \"#utility.yul\":14786:14800   */\n      lt\n        /* \"#utility.yul\":14778:14986   */\n      iszero\n      tag_310\n      jumpi\n        /* \"#utility.yul\":14871:14880   */\n      dup5\n        /* \"#utility.yul\":14866:14869   */\n      dup10\n        /* \"#utility.yul\":14862:14881   */\n      add\n        /* \"#utility.yul\":14856:14882   */\n      mload\n        /* \"#utility.yul\":14848:14854   */\n      dup3\n        /* \"#utility.yul\":14841:14883   */\n      sstore\n        /* \"#utility.yul\":14922:14923   */\n      0x01\n        /* \"#utility.yul\":14914:14920   */\n      dup3\n        /* \"#utility.yul\":14910:14924   */\n      add\n        /* \"#utility.yul\":14900:14924   */\n      swap2\n      pop\n        /* \"#utility.yul\":14969:14971   */\n      0x20\n        /* \"#utility.yul\":14958:14967   */\n      dup6\n        /* \"#utility.yul\":14954:14972   */\n      add\n        /* \"#utility.yul\":14941:14972   */\n      swap5\n      pop\n        /* \"#utility.yul\":14815:14819   */\n      0x20\n        /* \"#utility.yul\":14812:14813   */\n      dup2\n        /* \"#utility.yul\":14808:14820   */\n      add\n        /* \"#utility.yul\":14803:14820   */\n      swap1\n      pop\n        /* \"#utility.yul\":14778:14986   */\n      jump(tag_308)\n    tag_310:\n        /* \"#utility.yul\":15014:15020   */\n      dup7\n        /* \"#utility.yul\":15005:15012   */\n      dup4\n        /* \"#utility.yul\":15002:15021   */\n      lt\n        /* \"#utility.yul\":14999:15178   */\n      iszero\n      tag_311\n      jumpi\n        /* \"#utility.yul\":15072:15081   */\n      dup5\n        /* \"#utility.yul\":15067:15070   */\n      dup10\n        /* \"#utility.yul\":15063:15082   */\n      add\n        /* \"#utility.yul\":15057:15083   */\n      mload\n        /* \"#utility.yul\":15115:15163   */\n      tag_312\n        /* \"#utility.yul\":15157:15161   */\n      0x1f\n        /* \"#utility.yul\":15149:15155   */\n      dup10\n        /* \"#utility.yul\":15145:15162   */\n      and\n        /* \"#utility.yul\":15134:15143   */\n      dup3\n        /* \"#utility.yul\":15115:15163   */\n      tag_133\n      jump\t// in\n    tag_312:\n        /* \"#utility.yul\":15107:15113   */\n      dup4\n        /* \"#utility.yul\":15100:15164   */\n      sstore\n        /* \"#utility.yul\":15022:15178   */\n      pop\n        /* \"#utility.yul\":14999:15178   */\n    tag_311:\n        /* \"#utility.yul\":15224:15225   */\n      0x01\n        /* \"#utility.yul\":15220:15221   */\n      0x02\n        /* \"#utility.yul\":15212:15218   */\n      dup9\n        /* \"#utility.yul\":15208:15222   */\n      mul\n        /* \"#utility.yul\":15204:15226   */\n      add\n        /* \"#utility.yul\":15198:15202   */\n      dup9\n        /* \"#utility.yul\":15191:15227   */\n      sstore\n        /* \"#utility.yul\":14626:15237   */\n      pop\n      pop\n      pop\n        /* \"#utility.yul\":14589:15476   */\n    tag_303:\n      pop\n        /* \"#utility.yul\":14179:15482   */\n      pop\n      pop\n      pop\n        /* \"#utility.yul\":14087:15482   */\n      pop\n      pop\n      jump\t// out\n        /* \"#utility.yul\":15488:15668   */\n    tag_135:\n        /* \"#utility.yul\":15536:15613   */\n      0x4e487b7100000000000000000000000000000000000000000000000000000000\n        /* \"#utility.yul\":15533:15534   */\n      0x00\n        /* \"#utility.yul\":15526:15614   */\n      mstore\n        /* \"#utility.yul\":15633:15637   */\n      0x11\n        /* \"#utility.yul\":15630:15631   */\n      0x04\n        /* \"#utility.yul\":15623:15638   */\n      mstore\n        /* \"#utility.yul\":15657:15661   */\n      0x24\n        /* \"#utility.yul\":15654:15655   */\n      0x00\n        /* \"#utility.yul\":15647:15662   */\n      revert\n        /* \"#utility.yul\":15674:15907   */\n    tag_50:\n        /* \"#utility.yul\":15713:15716   */\n      0x00\n        /* \"#utility.yul\":15736:15760   */\n      tag_315\n        /* \"#utility.yul\":15754:15759   */\n      dup3\n        /* \"#utility.yul\":15736:15760   */\n      tag_102\n      jump\t// in\n    tag_315:\n        /* \"#utility.yul\":15727:15760   */\n      swap2\n      pop\n        /* \"#utility.yul\":15782:15848   */\n      0xffffffffffffffffffffffffffffffffffffffffffffffffffffffffffffffff\n        /* \"#utility.yul\":15775:15780   */\n      dup3\n        /* \"#utility.yul\":15772:15849   */\n      sub\n        /* \"#utility.yul\":15769:15872   */\n      tag_316\n      jumpi\n        /* \"#utility.yul\":15852:15870   */\n      tag_317\n      tag_135\n      jump\t// in\n    tag_317:\n        /* \"#utility.yul\":15769:15872   */\n    tag_316:\n        /* \"#utility.yul\":15899:15900   */\n      0x01\n        /* \"#utility.yul\":15892:15897   */\n      dup3\n        /* \"#utility.yul\":15888:15901   */\n      add\n        /* \"#utility.yul\":15881:15901   */\n      swap1\n      pop\n        /* \"#utility.yul\":15674:15907   */\n      swap2\n      swap1\n      pop\n      jump\t// out\n        /* \"#utility.yul\":15913:16087   */\n    tag_136:\n        /* \"#utility.yul\":16053:16079   */\n      0x54686973206576656e7420646f65736e27742065786973740000000000000000\n        /* \"#utility.yul\":16049:16050   */\n      0x00\n        /* \"#utility.yul\":16041:16047   */\n      dup3\n        /* \"#utility.yul\":16037:16051   */\n      add\n        /* \"#utility.yul\":16030:16080   */\n      mstore\n        /* \"#utility.yul\":15913:16087   */\n      pop\n      jump\t// out\n        /* \"#utility.yul\":16093:16459   */\n    tag_137:\n        /* \"#utility.yul\":16235:16238   */\n      0x00\n        /* \"#utility.yul\":16256:16323   */\n      tag_320\n        /* \"#utility.yul\":16320:16322   */\n      0x18\n        /* \"#utility.yul\":16315:16318   */\n      dup4\n        /* \"#utility.yul\":16256:16323   */\n      tag_109\n      jump\t// in\n    tag_320:\n        /* \"#utility.yul\":16249:16323   */\n      swap2\n      pop\n        /* \"#utility.yul\":16332:16425   */\n      tag_321\n        /* \"#utility.yul\":16421:16424   */\n      dup3\n        /* \"#utility.yul\":16332:16425   */\n      tag_136\n      jump\t// in\n    tag_321:\n        /* \"#utility.yul\":16450:16452   */\n      0x20\n        /* \"#utility.yul\":16445:16448   */\n      dup3\n        /* \"#utility.yul\":16441:16453   */\n      add\n        /* \"#utility.yul\":16434:16453   */\n      swap1\n      pop\n        /* \"#utility.yul\":16093:16459   */\n      swap2\n      swap1\n      pop\n      jump\t// out\n        /* \"#utility.yul\":16465:16884   */\n    tag_60:\n        /* \"#utility.yul\":16631:16635   */\n      0x00\n        /* \"#utility.yul\":16669:16671   */\n      0x20\n        /* \"#utility.yul\":16658:16667   */\n      dup3\n        /* \"#utility.yul\":16654:16672   */\n      add\n        /* \"#utility.yul\":16646:16672   */\n      swap1\n      pop\n        /* \"#utility.yul\":16718:16727   */\n      dup2\n        /* \"#utility.yul\":16712:16716   */\n      dup2\n        /* \"#utility.yul\":16708:16728   */\n      sub\n        /* \"#utility.yul\":16704:16705   */\n      0x00\n        /* \"#utility.yul\":16693:16702   */\n      dup4\n        /* \"#utility.yul\":16689:16706   */\n      add\n        /* \"#utility.yul\":16682:16729   */\n      mstore\n        /* \"#utility.yul\":16746:16877   */\n      tag_323\n        /* \"#utility.yul\":16872:16876   */\n      dup2\n        /* \"#utility.yul\":16746:16877   */\n      tag_137\n      jump\t// in\n    tag_323:\n        /* \"#utility.yul\":16738:16877   */\n      swap1\n      pop\n        /* \"#utility.yul\":16465:16884   */\n      swap2\n      swap1\n      pop\n      jump\t// out\n        /* \"#utility.yul\":16890:17069   */\n    tag_138:\n        /* \"#utility.yul\":17030:17061   */\n      0x546865206576656e742068617320616c7265616479206f636375726564000000\n        /* \"#utility.yul\":17026:17027   */\n      0x00\n        /* \"#utility.yul\":17018:17024   */\n      dup3\n        /* \"#utility.yul\":17014:17028   */\n      add\n        /* \"#utility.yul\":17007:17062   */\n      mstore\n        /* \"#utility.yul\":16890:17069   */\n      pop\n      jump\t// out\n        /* \"#utility.yul\":17075:17441   */\n    tag_139:\n        /* \"#utility.yul\":17217:17220   */\n      0x00\n        /* \"#utility.yul\":17238:17305   */\n      tag_326\n        /* \"#utility.yul\":17302:17304   */\n      0x1d\n        /* \"#utility.yul\":17297:17300   */\n      dup4\n        /* \"#utility.yul\":17238:17305   */\n      tag_109\n      jump\t// in\n    tag_326:\n        /* \"#utility.yul\":17231:17305   */\n      swap2\n      pop\n        /* \"#utility.yul\":17314:17407   */\n      tag_327\n        /* \"#utility.yul\":17403:17406   */\n      dup3\n        /* \"#utility.yul\":17314:17407   */\n      tag_138\n      jump\t// in\n    tag_327:\n        /* \"#utility.yul\":17432:17434   */\n      0x20\n        /* \"#utility.yul\":17427:17430   */\n      dup3\n        /* \"#utility.yul\":17423:17435   */\n      add\n        /* \"#utility.yul\":17416:17435   */\n      swap1\n      pop\n        /* \"#utility.yul\":17075:17441   */\n      swap2\n      swap1\n      pop\n      jump\t// out\n        /* \"#utility.yul\":17447:17866   */\n    tag_63:\n        /* \"#utility.yul\":17613:17617   */\n      0x00\n        /* \"#utility.yul\":17651:17653   */\n      0x20\n        /* \"#utility.yul\":17640:17649   */\n      dup3\n        /* \"#utility.yul\":17636:17654   */\n      add\n        /* \"#utility.yul\":17628:17654   */\n      swap1\n      pop\n        /* \"#utility.yul\":17700:17709   */\n      dup2\n        /* \"#utility.yul\":17694:17698   */\n      dup2\n        /* \"#utility.yul\":17690:17710   */\n      sub\n        /* \"#utility.yul\":17686:17687   */\n      0x00\n        /* \"#utility.yul\":17675:17684   */\n      dup4\n        /* \"#utility.yul\":17671:17688   */\n      add\n        /* \"#utility.yul\":17664:17711   */\n      mstore\n        /* \"#utility.yul\":17728:17859   */\n      tag_329\n        /* \"#utility.yul\":17854:17858   */\n      dup2\n        /* \"#utility.yul\":17728:17859   */\n      tag_139\n      jump\t// in\n    tag_329:\n        /* \"#utility.yul\":17720:17859   */\n      swap1\n      pop\n        /* \"#utility.yul\":17447:17866   */\n      swap2\n      swap1\n      pop\n      jump\t// out\n        /* \"#utility.yul\":17872:18282   */\n    tag_65:\n        /* \"#utility.yul\":17912:17919   */\n      0x00\n        /* \"#utility.yul\":17935:17955   */\n      tag_331\n        /* \"#utility.yul\":17953:17954   */\n      dup3\n        /* \"#utility.yul\":17935:17955   */\n      tag_102\n      jump\t// in\n    tag_331:\n        /* \"#utility.yul\":17930:17955   */\n      swap2\n      pop\n        /* \"#utility.yul\":17969:17989   */\n      tag_332\n        /* \"#utility.yul\":17987:17988   */\n      dup4\n        /* \"#utility.yul\":17969:17989   */\n      tag_102\n      jump\t// in\n    tag_332:\n        /* \"#utility.yul\":17964:17989   */\n      swap3\n      pop\n        /* \"#utility.yul\":18024:18025   */\n      dup3\n        /* \"#utility.yul\":18021:18022   */\n      dup3\n        /* \"#utility.yul\":18017:18026   */\n      mul\n        /* \"#utility.yul\":18046:18076   */\n      tag_333\n        /* \"#utility.yul\":18064:18075   */\n      dup2\n        /* \"#utility.yul\":18046:18076   */\n      tag_102\n      jump\t// in\n    tag_333:\n        /* \"#utility.yul\":18035:18076   */\n      swap2\n      pop\n        /* \"#utility.yul\":18225:18226   */\n      dup3\n        /* \"#utility.yul\":18216:18223   */\n      dup3\n        /* \"#utility.yul\":18212:18227   */\n      div\n        /* \"#utility.yul\":18209:18210   */\n      dup5\n        /* \"#utility.yul\":18206:18228   */\n      eq\n        /* \"#utility.yul\":18186:18187   */\n      dup4\n        /* \"#utility.yul\":18179:18188   */\n      iszero\n        /* \"#utility.yul\":18159:18242   */\n      or\n        /* \"#utility.yul\":18136:18275   */\n      tag_334\n      jumpi\n        /* \"#utility.yul\":18255:18273   */\n      tag_335\n      tag_135\n      jump\t// in\n    tag_335:\n        /* \"#utility.yul\":18136:18275   */\n    tag_334:\n        /* \"#utility.yul\":17920:18282   */\n      pop\n        /* \"#utility.yul\":17872:18282   */\n      swap3\n      swap2\n      pop\n      pop\n      jump\t// out\n        /* \"#utility.yul\":18288:18457   */\n    tag_140:\n        /* \"#utility.yul\":18428:18449   */\n      0x4574686572206973206e6f7420656e6f75676800000000000000000000000000\n        /* \"#utility.yul\":18424:18425   */\n      0x00\n        /* \"#utility.yul\":18416:18422   */\n      dup3\n        /* \"#utility.yul\":18412:18426   */\n      add\n        /* \"#utility.yul\":18405:18450   */\n      mstore\n        /* \"#utility.yul\":18288:18457   */\n      pop\n      jump\t// out\n        /* \"#utility.yul\":18463:18829   */\n    tag_141:\n        /* \"#utility.yul\":18605:18608   */\n      0x00\n        /* \"#utility.yul\":18626:18693   */\n      tag_338\n        /* \"#utility.yul\":18690:18692   */\n      0x13\n        /* \"#utility.yul\":18685:18688   */\n      dup4\n        /* \"#utility.yul\":18626:18693   */\n      tag_109\n      jump\t// in\n    tag_338:\n        /* \"#utility.yul\":18619:18693   */\n      swap2\n      pop\n        /* \"#utility.yul\":18702:18795   */\n      tag_339\n        /* \"#utility.yul\":18791:18794   */\n      dup3\n        /* \"#utility.yul\":18702:18795   */\n      tag_140\n      jump\t// in\n    tag_339:\n        /* \"#utility.yul\":18820:18822   */\n      0x20\n        /* \"#utility.yul\":18815:18818   */\n      dup3\n        /* \"#utility.yul\":18811:18823   */\n      add\n        /* \"#utility.yul\":18804:18823   */\n      swap1\n      pop\n        /* \"#utility.yul\":18463:18829   */\n      swap2\n      swap1\n      pop\n      jump\t// out\n        /* \"#utility.yul\":18835:19254   */\n    tag_68:\n        /* \"#utility.yul\":19001:19005   */\n      0x00\n        /* \"#utility.yul\":19039:19041   */\n      0x20\n        /* \"#utility.yul\":19028:19037   */\n      dup3\n        /* \"#utility.yul\":19024:19042   */\n      add\n        /* \"#utility.yul\":19016:19042   */\n      swap1\n      pop\n        /* \"#utility.yul\":19088:19097   */\n      dup2\n        /* \"#utility.yul\":19082:19086   */\n      dup2\n        /* \"#utility.yul\":19078:19098   */\n      sub\n        /* \"#utility.yul\":19074:19075   */\n      0x00\n        /* \"#utility.yul\":19063:19072   */\n      dup4\n        /* \"#utility.yul\":19059:19076   */\n      add\n        /* \"#utility.yul\":19052:19099   */\n      mstore\n        /* \"#utility.yul\":19116:19247   */\n      tag_341\n        /* \"#utility.yul\":19242:19246   */\n      dup2\n        /* \"#utility.yul\":19116:19247   */\n      tag_141\n      jump\t// in\n    tag_341:\n        /* \"#utility.yul\":19108:19247   */\n      swap1\n      pop\n        /* \"#utility.yul\":18835:19254   */\n      swap2\n      swap1\n      pop\n      jump\t// out\n        /* \"#utility.yul\":19260:19428   */\n    tag_142:\n        /* \"#utility.yul\":19400:19420   */\n      0x4e6f7420656e6f756768207469636b6574730000000000000000000000000000\n        /* \"#utility.yul\":19396:19397   */\n      0x00\n        /* \"#utility.yul\":19388:19394   */\n      dup3\n        /* \"#utility.yul\":19384:19398   */\n      add\n        /* \"#utility.yul\":19377:19421   */\n      mstore\n        /* \"#utility.yul\":19260:19428   */\n      pop\n      jump\t// out\n        /* \"#utility.yul\":19434:19800   */\n    tag_143:\n        /* \"#utility.yul\":19576:19579   */\n      0x00\n        /* \"#utility.yul\":19597:19664   */\n      tag_344\n        /* \"#utility.yul\":19661:19663   */\n      0x12\n        /* \"#utility.yul\":19656:19659   */\n      dup4\n        /* \"#utility.yul\":19597:19664   */\n      tag_109\n      jump\t// in\n    tag_344:\n        /* \"#utility.yul\":19590:19664   */\n      swap2\n      pop\n        /* \"#utility.yul\":19673:19766   */\n      tag_345\n        /* \"#utility.yul\":19762:19765   */\n      dup3\n        /* \"#utility.yul\":19673:19766   */\n      tag_142\n      jump\t// in\n    tag_345:\n        /* \"#utility.yul\":19791:19793   */\n      0x20\n        /* \"#utility.yul\":19786:19789   */\n      dup3\n        /* \"#utility.yul\":19782:19794   */\n      add\n        /* \"#utility.yul\":19775:19794   */\n      swap1\n      pop\n        /* \"#utility.yul\":19434:19800   */\n      swap2\n      swap1\n      pop\n      jump\t// out\n        /* \"#utility.yul\":19806:20225   */\n    tag_71:\n        /* \"#utility.yul\":19972:19976   */\n      0x00\n        /* \"#utility.yul\":20010:20012   */\n      0x20\n        /* \"#utility.yul\":19999:20008   */\n      dup3\n        /* \"#utility.yul\":19995:20013   */\n      add\n        /* \"#utility.yul\":19987:20013   */\n      swap1\n      pop\n        /* \"#utility.yul\":20059:20068   */\n      dup2\n        /* \"#utility.yul\":20053:20057   */\n      dup2\n        /* \"#utility.yul\":20049:20069   */\n      sub\n        /* \"#utility.yul\":20045:20046   */\n      0x00\n        /* \"#utility.yul\":20034:20043   */\n      dup4\n        /* \"#utility.yul\":20030:20047   */\n      add\n        /* \"#utility.yul\":20023:20070   */\n      mstore\n        /* \"#utility.yul\":20087:20218   */\n      tag_347\n        /* \"#utility.yul\":20213:20217   */\n      dup2\n        /* \"#utility.yul\":20087:20218   */\n      tag_143\n      jump\t// in\n    tag_347:\n        /* \"#utility.yul\":20079:20218   */\n      swap1\n      pop\n        /* \"#utility.yul\":19806:20225   */\n      swap2\n      swap1\n      pop\n      jump\t// out\n        /* \"#utility.yul\":20231:20422   */\n    tag_73:\n        /* \"#utility.yul\":20271:20274   */\n      0x00\n        /* \"#utility.yul\":20290:20310   */\n      tag_349\n        /* \"#utility.yul\":20308:20309   */\n      dup3\n        /* \"#utility.yul\":20290:20310   */\n      tag_102\n      jump\t// in\n    tag_349:\n        /* \"#utility.yul\":20285:20310   */\n      swap2\n      pop\n        /* \"#utility.yul\":20324:20344   */\n      tag_350\n        /* \"#utility.yul\":20342:20343   */\n      dup4\n        /* \"#utility.yul\":20324:20344   */\n      tag_102\n      jump\t// in\n    tag_350:\n        /* \"#utility.yul\":20319:20344   */\n      swap3\n      pop\n        /* \"#utility.yul\":20367:20368   */\n      dup3\n        /* \"#utility.yul\":20364:20365   */\n      dup3\n        /* \"#utility.yul\":20360:20369   */\n      add\n        /* \"#utility.yul\":20353:20369   */\n      swap1\n      pop\n        /* \"#utility.yul\":20388:20391   */\n      dup1\n        /* \"#utility.yul\":20385:20386   */\n      dup3\n        /* \"#utility.yul\":20382:20392   */\n      gt\n        /* \"#utility.yul\":20379:20415   */\n      iszero\n      tag_351\n      jumpi\n        /* \"#utility.yul\":20395:20413   */\n      tag_352\n      tag_135\n      jump\t// in\n    tag_352:\n        /* \"#utility.yul\":20379:20415   */\n    tag_351:\n        /* \"#utility.yul\":20231:20422   */\n      swap3\n      swap2\n      pop\n      pop\n      jump\t// out\n        /* \"#utility.yul\":20428:20622   */\n    tag_76:\n        /* \"#utility.yul\":20468:20472   */\n      0x00\n        /* \"#utility.yul\":20488:20508   */\n      tag_354\n        /* \"#utility.yul\":20506:20507   */\n      dup3\n        /* \"#utility.yul\":20488:20508   */\n      tag_102\n      jump\t// in\n    tag_354:\n        /* \"#utility.yul\":20483:20508   */\n      swap2\n      pop\n        /* \"#utility.yul\":20522:20542   */\n      tag_355\n        /* \"#utility.yul\":20540:20541   */\n      dup4\n        /* \"#utility.yul\":20522:20542   */\n      tag_102\n      jump\t// in\n    tag_355:\n        /* \"#utility.yul\":20517:20542   */\n      swap3\n      pop\n        /* \"#utility.yul\":20566:20567   */\n      dup3\n        /* \"#utility.yul\":20563:20564   */\n      dup3\n        /* \"#utility.yul\":20559:20568   */\n      sub\n        /* \"#utility.yul\":20551:20568   */\n      swap1\n      pop\n        /* \"#utility.yul\":20590:20591   */\n      dup2\n        /* \"#utility.yul\":20584:20588   */\n      dup2\n        /* \"#utility.yul\":20581:20592   */\n      gt\n        /* \"#utility.yul\":20578:20615   */\n      iszero\n      tag_356\n      jumpi\n        /* \"#utility.yul\":20595:20613   */\n      tag_357\n      tag_135\n      jump\t// in\n    tag_357:\n        /* \"#utility.yul\":20578:20615   */\n    tag_356:\n        /* \"#utility.yul\":20428:20622   */\n      swap3\n      swap2\n      pop\n      pop\n      jump\t// out\n        /* \"#utility.yul\":20628:20807   */\n    tag_144:\n        /* \"#utility.yul\":20768:20799   */\n      0x596f7520646f6e2774206861766520656e6f756768207469636b657473000000\n        /* \"#utility.yul\":20764:20765   */\n      0x00\n        /* \"#utility.yul\":20756:20762   */\n      dup3\n        /* \"#utility.yul\":20752:20766   */\n      add\n        /* \"#utility.yul\":20745:20800   */\n      mstore\n        /* \"#utility.yul\":20628:20807   */\n      pop\n      jump\t// out\n        /* \"#utility.yul\":20813:21179   */\n    tag_145:\n        /* \"#utility.yul\":20955:20958   */\n      0x00\n        /* \"#utility.yul\":20976:21043   */\n      tag_360\n        /* \"#utility.yul\":21040:21042   */\n      0x1d\n        /* \"#utility.yul\":21035:21038   */\n      dup4\n        /* \"#utility.yul\":20976:21043   */\n      tag_109\n      jump\t// in\n    tag_360:\n        /* \"#utility.yul\":20969:21043   */\n      swap2\n      pop\n        /* \"#utility.yul\":21052:21145   */\n      tag_361\n        /* \"#utility.yul\":21141:21144   */\n      dup3\n        /* \"#utility.yul\":21052:21145   */\n      tag_144\n      jump\t// in\n    tag_361:\n        /* \"#utility.yul\":21170:21172   */\n      0x20\n        /* \"#utility.yul\":21165:21168   */\n      dup3\n        /* \"#utility.yul\":21161:21173   */\n      add\n        /* \"#utility.yul\":21154:21173   */\n      swap1\n      pop\n        /* \"#utility.yul\":20813:21179   */\n      swap2\n      swap1\n      pop\n      jump\t// out\n        /* \"#utility.yul\":21185:21604   */\n    tag_86:\n        /* \"#utility.yul\":21351:21355   */\n      0x00\n        /* \"#utility.yul\":21389:21391   */\n      0x20\n        /* \"#utility.yul\":21378:21387   */\n      dup3\n        /* \"#utility.yul\":21374:21392   */\n      add\n        /* \"#utility.yul\":21366:21392   */\n      swap1\n      pop\n        /* \"#utility.yul\":21438:21447   */\n      dup2\n        /* \"#utility.yul\":21432:21436   */\n      dup2\n        /* \"#utility.yul\":21428:21448   */\n      sub\n        /* \"#utility.yul\":21424:21425   */\n      0x00\n        /* \"#utility.yul\":21413:21422   */\n      dup4\n        /* \"#utility.yul\":21409:21426   */\n      add\n        /* \"#utility.yul\":21402:21449   */\n      mstore\n        /* \"#utility.yul\":21466:21597   */\n      tag_363\n        /* \"#utility.yul\":21592:21596   */\n      dup2\n        /* \"#utility.yul\":21466:21597   */\n      tag_145\n      jump\t// in\n    tag_363:\n        /* \"#utility.yul\":21458:21597   */\n      swap1\n      pop\n        /* \"#utility.yul\":21185:21604   */\n      swap2\n      swap1\n      pop\n      jump\t// out\n\n    auxdata: 0xa26469706673582212203811ce18cccf97d2fa592ef20be5bf77ba870aeff94667ef054e77bfc7b6dfa764736f6c63430008180033\n}\n",
				"bytecode": {
					"linkReferences": {},
					"object": "608060405234801561000f575f80fd5b506113ca8061001d5f395ff3fe608060405260043610610054575f3560e01c80630374ab0b146100585780630b79143014610080578063298ec208146100c157806361b8ce8c146100dd578063dae7a13c14610107578063f086a09b14610143575b5f80fd5b348015610063575f80fd5b5061007e600480360381019061007991906109a4565b61016b565b005b34801561008b575f80fd5b506100a660048036038101906100a19190610a24565b6102e5565b6040516100b896959493929190610b17565b60405180910390f35b6100db60048036038101906100d69190610b7d565b6103c2565b005b3480156100e8575f80fd5b506100f16105fb565b6040516100fe9190610bbb565b60405180910390f35b348015610112575f80fd5b5061012d60048036038101906101289190610bfe565b610600565b60405161013a9190610bbb565b60405180910390f35b34801561014e575f80fd5b5061016960048036038101906101649190610c3c565b610620565b005b4283116101ad576040517f08c379a00000000000000000000000000000000000000000000000000000000081526004016101a490610cfc565b60405180910390fd5b5f81116101ef576040517f08c379a00000000000000000000000000000000000000000000000000000000081526004016101e690610d8a565b60405180910390fd5b6040518060c001604052803373ffffffffffffffffffffffffffffffffffffffff1681526020018581526020018481526020018381526020018281526020018281525060015f805481526020019081526020015f205f820151815f015f6101000a81548173ffffffffffffffffffffffffffffffffffffffff021916908373ffffffffffffffffffffffffffffffffffffffff160217905550602082015181600101908161029d9190610fa2565b5060408201518160020155606082015181600301556080820151816004015560a082015181600501559050505f808154809291906102da9061109e565b919050555050505050565b6001602052805f5260405f205f91509050805f015f9054906101000a900473ffffffffffffffffffffffffffffffffffffffff169080600101805461032990610dd5565b80601f016020809104026020016040519081016040528092919081815260200182805461035590610dd5565b80156103a05780601f10610377576101008083540402835291602001916103a0565b820191905f5260205f20905b81548152906001019060200180831161038357829003601f168201915b5050505050908060020154908060030154908060040154908060050154905086565b5f60015f8481526020019081526020015f206002015403610418576040517f08c379a000000000000000000000000000000000000000000000000000000000815260040161040f9061112f565b60405180910390fd5b4260015f8481526020019081526020015f20600201541161046e576040517f08c379a000000000000000000000000000000000000000000000000000000000815260040161046590611197565b60405180910390fd5b8060015f8481526020019081526020015f206003015461048e91906111b5565b3410156104d0576040517f08c379a00000000000000000000000000000000000000000000000000000000081526004016104c790611240565b60405180910390fd5b8060015f8481526020019081526020015f20600501541015610527576040517f08c379a000000000000000000000000000000000000000000000000000000000815260040161051e906112a8565b60405180910390fd5b8060025f3373ffffffffffffffffffffffffffffffffffffffff1673ffffffffffffffffffffffffffffffffffffffff1681526020019081526020015f205f8481526020019081526020015f205f82825461058291906112c6565b925050819055503373ffffffffffffffffffffffffffffffffffffffff166108fc8260015f8681526020019081526020015f20600301546105c391906111b5565b346105ce91906112f9565b90811502906040515f60405180830381858888f193505050501580156105f6573d5f803e3d5ffd5b505050565b5f5481565b6002602052815f5260405f20602052805f5260405f205f91509150505481565b5f60015f8581526020019081526020015f206002015403610676576040517f08c379a000000000000000000000000000000000000000000000000000000000815260040161066d9061112f565b60405180910390fd5b4260015f8581526020019081526020015f2060020154116106cc576040517f08c379a00000000000000000000000000000000000000000000000000000000081526004016106c390611197565b60405180910390fd5b8160025f3373ffffffffffffffffffffffffffffffffffffffff1673ffffffffffffffffffffffffffffffffffffffff1681526020019081526020015f205f8581526020019081526020015f2054101561075b576040517f08c379a000000000000000000000000000000000000000000000000000000000815260040161075290611376565b60405180910390fd5b8160025f3373ffffffffffffffffffffffffffffffffffffffff1673ffffffffffffffffffffffffffffffffffffffff1681526020019081526020015f205f8581526020019081526020015f205f8282546107b691906112f9565b925050819055508160025f8373ffffffffffffffffffffffffffffffffffffffff1673ffffffffffffffffffffffffffffffffffffffff1681526020019081526020015f205f8581526020019081526020015f205f82825461081891906112c6565b92505081905550505050565b5f604051905090565b5f80fd5b5f80fd5b5f80fd5b5f80fd5b5f601f19601f8301169050919050565b7f4e487b71000000000000000000000000000000000000000000000000000000005f52604160045260245ffd5b6108838261083d565b810181811067ffffffffffffffff821117156108a2576108a161084d565b5b80604052505050565b5f6108b4610824565b90506108c0828261087a565b919050565b5f67ffffffffffffffff8211156108df576108de61084d565b5b6108e88261083d565b9050602081019050919050565b828183375f83830152505050565b5f610915610910846108c5565b6108ab565b90508281526020810184848401111561093157610930610839565b5b61093c8482856108f5565b509392505050565b5f82601f83011261095857610957610835565b5b8135610968848260208601610903565b91505092915050565b5f819050919050565b61098381610971565b811461098d575f80fd5b50565b5f8135905061099e8161097a565b92915050565b5f805f80608085870312156109bc576109bb61082d565b5b5f85013567ffffffffffffffff8111156109d9576109d8610831565b5b6109e587828801610944565b94505060206109f687828801610990565b9350506040610a0787828801610990565b9250506060610a1887828801610990565b91505092959194509250565b5f60208284031215610a3957610a3861082d565b5b5f610a4684828501610990565b91505092915050565b5f73ffffffffffffffffffffffffffffffffffffffff82169050919050565b5f610a7882610a4f565b9050919050565b610a8881610a6e565b82525050565b5f81519050919050565b5f82825260208201905092915050565b5f5b83811015610ac5578082015181840152602081019050610aaa565b5f8484015250505050565b5f610ada82610a8e565b610ae48185610a98565b9350610af4818560208601610aa8565b610afd8161083d565b840191505092915050565b610b1181610971565b82525050565b5f60c082019050610b2a5f830189610a7f565b8181036020830152610b3c8188610ad0565b9050610b4b6040830187610b08565b610b586060830186610b08565b610b656080830185610b08565b610b7260a0830184610b08565b979650505050505050565b5f8060408385031215610b9357610b9261082d565b5b5f610ba085828601610990565b9250506020610bb185828601610990565b9150509250929050565b5f602082019050610bce5f830184610b08565b92915050565b610bdd81610a6e565b8114610be7575f80fd5b50565b5f81359050610bf881610bd4565b92915050565b5f8060408385031215610c1457610c1361082d565b5b5f610c2185828601610bea565b9250506020610c3285828601610990565b9150509250929050565b5f805f60608486031215610c5357610c5261082d565b5b5f610c6086828701610990565b9350506020610c7186828701610990565b9250506040610c8286828701610bea565b9150509250925092565b7f596f752063616e206f6e6c79206f7267616e697a65206576656e7420666f72205f8201527f6675747572652064617465730000000000000000000000000000000000000000602082015250565b5f610ce6602c83610a98565b9150610cf182610c8c565b604082019050919050565b5f6020820190508181035f830152610d1381610cda565b9050919050565b7f596f752063616e206f6e6c79206f7267616e697a65206576656e7420696620795f8201527f6f7520637265617465206d6f7265207468616e2030207469636b657473000000602082015250565b5f610d74603d83610a98565b9150610d7f82610d1a565b604082019050919050565b5f6020820190508181035f830152610da181610d68565b9050919050565b7f4e487b71000000000000000000000000000000000000000000000000000000005f52602260045260245ffd5b5f6002820490506001821680610dec57607f821691505b602082108103610dff57610dfe610da8565b5b50919050565b5f819050815f5260205f209050919050565b5f6020601f8301049050919050565b5f82821b905092915050565b5f60088302610e617fffffffffffffffffffffffffffffffffffffffffffffffffffffffffffffffff82610e26565b610e6b8683610e26565b95508019841693508086168417925050509392505050565b5f819050919050565b5f610ea6610ea1610e9c84610971565b610e83565b610971565b9050919050565b5f819050919050565b610ebf83610e8c565b610ed3610ecb82610ead565b848454610e32565b825550505050565b5f90565b610ee7610edb565b610ef2818484610eb6565b505050565b5b81811015610f1557610f0a5f82610edf565b600181019050610ef8565b5050565b601f821115610f5a57610f2b81610e05565b610f3484610e17565b81016020851015610f43578190505b610f57610f4f85610e17565b830182610ef7565b50505b505050565b5f82821c905092915050565b5f610f7a5f1984600802610f5f565b1980831691505092915050565b5f610f928383610f6b565b9150826002028217905092915050565b610fab82610a8e565b67ffffffffffffffff811115610fc457610fc361084d565b5b610fce8254610dd5565b610fd9828285610f19565b5f60209050601f83116001811461100a575f8415610ff8578287015190505b6110028582610f87565b865550611069565b601f19841661101886610e05565b5f5b8281101561103f5784890151825560018201915060208501945060208101905061101a565b8683101561105c5784890151611058601f891682610f6b565b8355505b6001600288020188555050505b505050505050565b7f4e487b71000000000000000000000000000000000000000000000000000000005f52601160045260245ffd5b5f6110a882610971565b91507fffffffffffffffffffffffffffffffffffffffffffffffffffffffffffffffff82036110da576110d9611071565b5b600182019050919050565b7f54686973206576656e7420646f65736e277420657869737400000000000000005f82015250565b5f611119601883610a98565b9150611124826110e5565b602082019050919050565b5f6020820190508181035f8301526111468161110d565b9050919050565b7f546865206576656e742068617320616c7265616479206f6363757265640000005f82015250565b5f611181601d83610a98565b915061118c8261114d565b602082019050919050565b5f6020820190508181035f8301526111ae81611175565b9050919050565b5f6111bf82610971565b91506111ca83610971565b92508282026111d881610971565b915082820484148315176111ef576111ee611071565b5b5092915050565b7f4574686572206973206e6f7420656e6f756768000000000000000000000000005f82015250565b5f61122a601383610a98565b9150611235826111f6565b602082019050919050565b5f6020820190508181035f8301526112578161121e565b9050919050565b7f4e6f7420656e6f756768207469636b65747300000000000000000000000000005f82015250565b5f611292601283610a98565b915061129d8261125e565b602082019050919050565b5f6020820190508181035f8301526112bf81611286565b9050919050565b5f6112d082610971565b91506112db83610971565b92508282019050808211156112f3576112f2611071565b5b92915050565b5f61130382610971565b915061130e83610971565b925082820390508181111561132657611325611071565b5b92915050565b7f596f7520646f6e2774206861766520656e6f756768207469636b6574730000005f82015250565b5f611360601d83610a98565b915061136b8261132c565b602082019050919050565b5f6020820190508181035f83015261138d81611354565b905091905056fea26469706673582212203811ce18cccf97d2fa592ef20be5bf77ba870aeff94667ef054e77bfc7b6dfa764736f6c63430008180033",
					"opcodes": "PUSH1 0x80 PUSH1 0x40 MSTORE CALLVALUE DUP1 ISZERO PUSH2 0xF JUMPI PUSH0 DUP1 REVERT JUMPDEST POP PUSH2 0x13CA DUP1 PUSH2 0x1D PUSH0 CODECOPY PUSH0 RETURN INVALID PUSH1 0x80 PUSH1 0x40 MSTORE PUSH1 0x4 CALLDATASIZE LT PUSH2 0x54 JUMPI PUSH0 CALLDATALOAD PUSH1 0xE0 SHR DUP1 PUSH4 0x374AB0B EQ PUSH2 0x58 JUMPI DUP1 PUSH4 0xB791430 EQ PUSH2 0x80 JUMPI DUP1 PUSH4 0x298EC208 EQ PUSH2 0xC1 JUMPI DUP1 PUSH4 0x61B8CE8C EQ PUSH2 0xDD JUMPI DUP1 PUSH4 0xDAE7A13C EQ PUSH2 0x107 JUMPI DUP1 PUSH4 0xF086A09B EQ PUSH2 0x143 JUMPI JUMPDEST PUSH0 DUP1 REVERT JUMPDEST CALLVALUE DUP1 ISZERO PUSH2 0x63 JUMPI PUSH0 DUP1 REVERT JUMPDEST POP PUSH2 0x7E PUSH1 0x4 DUP1 CALLDATASIZE SUB DUP2 ADD SWAP1 PUSH2 0x79 SWAP2 SWAP1 PUSH2 0x9A4 JUMP JUMPDEST PUSH2 0x16B JUMP JUMPDEST STOP JUMPDEST CALLVALUE DUP1 ISZERO PUSH2 0x8B JUMPI PUSH0 DUP1 REVERT JUMPDEST POP PUSH2 0xA6 PUSH1 0x4 DUP1 CALLDATASIZE SUB DUP2 ADD SWAP1 PUSH2 0xA1 SWAP2 SWAP1 PUSH2 0xA24 JUMP JUMPDEST PUSH2 0x2E5 JUMP JUMPDEST PUSH1 0x40 MLOAD PUSH2 0xB8 SWAP7 SWAP6 SWAP5 SWAP4 SWAP3 SWAP2 SWAP1 PUSH2 0xB17 JUMP JUMPDEST PUSH1 0x40 MLOAD DUP1 SWAP2 SUB SWAP1 RETURN JUMPDEST PUSH2 0xDB PUSH1 0x4 DUP1 CALLDATASIZE SUB DUP2 ADD SWAP1 PUSH2 0xD6 SWAP2 SWAP1 PUSH2 0xB7D JUMP JUMPDEST PUSH2 0x3C2 JUMP JUMPDEST STOP JUMPDEST CALLVALUE DUP1 ISZERO PUSH2 0xE8 JUMPI PUSH0 DUP1 REVERT JUMPDEST POP PUSH2 0xF1 PUSH2 0x5FB JUMP JUMPDEST PUSH1 0x40 MLOAD PUSH2 0xFE SWAP2 SWAP1 PUSH2 0xBBB JUMP JUMPDEST PUSH1 0x40 MLOAD DUP1 SWAP2 SUB SWAP1 RETURN JUMPDEST CALLVALUE DUP1 ISZERO PUSH2 0x112 JUMPI PUSH0 DUP1 REVERT JUMPDEST POP PUSH2 0x12D PUSH1 0x4 DUP1 CALLDATASIZE SUB DUP2 ADD SWAP1 PUSH2 0x128 SWAP2 SWAP1 PUSH2 0xBFE JUMP JUMPDEST PUSH2 0x600 JUMP JUMPDEST PUSH1 0x40 MLOAD PUSH2 0x13A SWAP2 SWAP1 PUSH2 0xBBB JUMP JUMPDEST PUSH1 0x40 MLOAD DUP1 SWAP2 SUB SWAP1 RETURN JUMPDEST CALLVALUE DUP1 ISZERO PUSH2 0x14E JUMPI PUSH0 DUP1 REVERT JUMPDEST POP PUSH2 0x169 PUSH1 0x4 DUP1 CALLDATASIZE SUB DUP2 ADD SWAP1 PUSH2 0x164 SWAP2 SWAP1 PUSH2 0xC3C JUMP JUMPDEST PUSH2 0x620 JUMP JUMPDEST STOP JUMPDEST TIMESTAMP DUP4 GT PUSH2 0x1AD JUMPI PUSH1 0x40 MLOAD PUSH32 0x8C379A000000000000000000000000000000000000000000000000000000000 DUP2 MSTORE PUSH1 0x4 ADD PUSH2 0x1A4 SWAP1 PUSH2 0xCFC JUMP JUMPDEST PUSH1 0x40 MLOAD DUP1 SWAP2 SUB SWAP1 REVERT JUMPDEST PUSH0 DUP2 GT PUSH2 0x1EF JUMPI PUSH1 0x40 MLOAD PUSH32 0x8C379A000000000000000000000000000000000000000000000000000000000 DUP2 MSTORE PUSH1 0x4 ADD PUSH2 0x1E6 SWAP1 PUSH2 0xD8A JUMP JUMPDEST PUSH1 0x40 MLOAD DUP1 SWAP2 SUB SWAP1 REVERT JUMPDEST PUSH1 0x40 MLOAD DUP1 PUSH1 0xC0 ADD PUSH1 0x40 MSTORE DUP1 CALLER PUSH20 0xFFFFFFFFFFFFFFFFFFFFFFFFFFFFFFFFFFFFFFFF AND DUP2 MSTORE PUSH1 0x20 ADD DUP6 DUP2 MSTORE PUSH1 0x20 ADD DUP5 DUP2 MSTORE PUSH1 0x20 ADD DUP4 DUP2 MSTORE PUSH1 0x20 ADD DUP3 DUP2 MSTORE PUSH1 0x20 ADD DUP3 DUP2 MSTORE POP PUSH1 0x1 PUSH0 DUP1 SLOAD DUP2 MSTORE PUSH1 0x20 ADD SWAP1 DUP2 MSTORE PUSH1 0x20 ADD PUSH0 KECCAK256 PUSH0 DUP3 ADD MLOAD DUP2 PUSH0 ADD PUSH0 PUSH2 0x100 EXP DUP2 SLOAD DUP2 PUSH20 0xFFFFFFFFFFFFFFFFFFFFFFFFFFFFFFFFFFFFFFFF MUL NOT AND SWAP1 DUP4 PUSH20 0xFFFFFFFFFFFFFFFFFFFFFFFFFFFFFFFFFFFFFFFF AND MUL OR SWAP1 SSTORE POP PUSH1 0x20 DUP3 ADD MLOAD DUP2 PUSH1 0x1 ADD SWAP1 DUP2 PUSH2 0x29D SWAP2 SWAP1 PUSH2 0xFA2 JUMP JUMPDEST POP PUSH1 0x40 DUP3 ADD MLOAD DUP2 PUSH1 0x2 ADD SSTORE PUSH1 0x60 DUP3 ADD MLOAD DUP2 PUSH1 0x3 ADD SSTORE PUSH1 0x80 DUP3 ADD MLOAD DUP2 PUSH1 0x4 ADD SSTORE PUSH1 0xA0 DUP3 ADD MLOAD DUP2 PUSH1 0x5 ADD SSTORE SWAP1 POP POP PUSH0 DUP1 DUP2 SLOAD DUP1 SWAP3 SWAP2 SWAP1 PUSH2 0x2DA SWAP1 PUSH2 0x109E JUMP JUMPDEST SWAP2 SWAP1 POP SSTORE POP POP POP POP POP JUMP JUMPDEST PUSH1 0x1 PUSH1 0x20 MSTORE DUP1 PUSH0 MSTORE PUSH1 0x40 PUSH0 KECCAK256 PUSH0 SWAP2 POP SWAP1 POP DUP1 PUSH0 ADD PUSH0 SWAP1 SLOAD SWAP1 PUSH2 0x100 EXP SWAP1 DIV PUSH20 0xFFFFFFFFFFFFFFFFFFFFFFFFFFFFFFFFFFFFFFFF AND SWAP1 DUP1 PUSH1 0x1 ADD DUP1 SLOAD PUSH2 0x329 SWAP1 PUSH2 0xDD5 JUMP JUMPDEST DUP1 PUSH1 0x1F ADD PUSH1 0x20 DUP1 SWAP2 DIV MUL PUSH1 0x20 ADD PUSH1 0x40 MLOAD SWAP1 DUP2 ADD PUSH1 0x40 MSTORE DUP1 SWAP3 SWAP2 SWAP1 DUP2 DUP2 MSTORE PUSH1 0x20 ADD DUP3 DUP1 SLOAD PUSH2 0x355 SWAP1 PUSH2 0xDD5 JUMP JUMPDEST DUP1 ISZERO PUSH2 0x3A0 JUMPI DUP1 PUSH1 0x1F LT PUSH2 0x377 JUMPI PUSH2 0x100 DUP1 DUP4 SLOAD DIV MUL DUP4 MSTORE SWAP2 PUSH1 0x20 ADD SWAP2 PUSH2 0x3A0 JUMP JUMPDEST DUP3 ADD SWAP2 SWAP1 PUSH0 MSTORE PUSH1 0x20 PUSH0 KECCAK256 SWAP1 JUMPDEST DUP2 SLOAD DUP2 MSTORE SWAP1 PUSH1 0x1 ADD SWAP1 PUSH1 0x20 ADD DUP1 DUP4 GT PUSH2 0x383 JUMPI DUP3 SWAP1 SUB PUSH1 0x1F AND DUP3 ADD SWAP2 JUMPDEST POP POP POP POP POP SWAP1 DUP1 PUSH1 0x2 ADD SLOAD SWAP1 DUP1 PUSH1 0x3 ADD SLOAD SWAP1 DUP1 PUSH1 0x4 ADD SLOAD SWAP1 DUP1 PUSH1 0x5 ADD SLOAD SWAP1 POP DUP7 JUMP JUMPDEST PUSH0 PUSH1 0x1 PUSH0 DUP5 DUP2 MSTORE PUSH1 0x20 ADD SWAP1 DUP2 MSTORE PUSH1 0x20 ADD PUSH0 KECCAK256 PUSH1 0x2 ADD SLOAD SUB PUSH2 0x418 JUMPI PUSH1 0x40 MLOAD PUSH32 0x8C379A000000000000000000000000000000000000000000000000000000000 DUP2 MSTORE PUSH1 0x4 ADD PUSH2 0x40F SWAP1 PUSH2 0x112F JUMP JUMPDEST PUSH1 0x40 MLOAD DUP1 SWAP2 SUB SWAP1 REVERT JUMPDEST TIMESTAMP PUSH1 0x1 PUSH0 DUP5 DUP2 MSTORE PUSH1 0x20 ADD SWAP1 DUP2 MSTORE PUSH1 0x20 ADD PUSH0 KECCAK256 PUSH1 0x2 ADD SLOAD GT PUSH2 0x46E JUMPI PUSH1 0x40 MLOAD PUSH32 0x8C379A000000000000000000000000000000000000000000000000000000000 DUP2 MSTORE PUSH1 0x4 ADD PUSH2 0x465 SWAP1 PUSH2 0x1197 JUMP JUMPDEST PUSH1 0x40 MLOAD DUP1 SWAP2 SUB SWAP1 REVERT JUMPDEST DUP1 PUSH1 0x1 PUSH0 DUP5 DUP2 MSTORE PUSH1 0x20 ADD SWAP1 DUP2 MSTORE PUSH1 0x20 ADD PUSH0 KECCAK256 PUSH1 0x3 ADD SLOAD PUSH2 0x48E SWAP2 SWAP1 PUSH2 0x11B5 JUMP JUMPDEST CALLVALUE LT ISZERO PUSH2 0x4D0 JUMPI PUSH1 0x40 MLOAD PUSH32 0x8C379A000000000000000000000000000000000000000000000000000000000 DUP2 MSTORE PUSH1 0x4 ADD PUSH2 0x4C7 SWAP1 PUSH2 0x1240 JUMP JUMPDEST PUSH1 0x40 MLOAD DUP1 SWAP2 SUB SWAP1 REVERT JUMPDEST DUP1 PUSH1 0x1 PUSH0 DUP5 DUP2 MSTORE PUSH1 0x20 ADD SWAP1 DUP2 MSTORE PUSH1 0x20 ADD PUSH0 KECCAK256 PUSH1 0x5 ADD SLOAD LT ISZERO PUSH2 0x527 JUMPI PUSH1 0x40 MLOAD PUSH32 0x8C379A000000000000000000000000000000000000000000000000000000000 DUP2 MSTORE PUSH1 0x4 ADD PUSH2 0x51E SWAP1 PUSH2 0x12A8 JUMP JUMPDEST PUSH1 0x40 MLOAD DUP1 SWAP2 SUB SWAP1 REVERT JUMPDEST DUP1 PUSH1 0x2 PUSH0 CALLER PUSH20 0xFFFFFFFFFFFFFFFFFFFFFFFFFFFFFFFFFFFFFFFF AND PUSH20 0xFFFFFFFFFFFFFFFFFFFFFFFFFFFFFFFFFFFFFFFF AND DUP2 MSTORE PUSH1 0x20 ADD SWAP1 DUP2 MSTORE PUSH1 0x20 ADD PUSH0 KECCAK256 PUSH0 DUP5 DUP2 MSTORE PUSH1 0x20 ADD SWAP1 DUP2 MSTORE PUSH1 0x20 ADD PUSH0 KECCAK256 PUSH0 DUP3 DUP3 SLOAD PUSH2 0x582 SWAP2 SWAP1 PUSH2 0x12C6 JUMP JUMPDEST SWAP3 POP POP DUP2 SWAP1 SSTORE POP CALLER PUSH20 0xFFFFFFFFFFFFFFFFFFFFFFFFFFFFFFFFFFFFFFFF AND PUSH2 0x8FC DUP3 PUSH1 0x1 PUSH0 DUP7 DUP2 MSTORE PUSH1 0x20 ADD SWAP1 DUP2 MSTORE PUSH1 0x20 ADD PUSH0 KECCAK256 PUSH1 0x3 ADD SLOAD PUSH2 0x5C3 SWAP2 SWAP1 PUSH2 0x11B5 JUMP JUMPDEST CALLVALUE PUSH2 0x5CE SWAP2 SWAP1 PUSH2 0x12F9 JUMP JUMPDEST SWAP1 DUP2 ISZERO MUL SWAP1 PUSH1 0x40 MLOAD PUSH0 PUSH1 0x40 MLOAD DUP1 DUP4 SUB DUP2 DUP6 DUP9 DUP9 CALL SWAP4 POP POP POP POP ISZERO DUP1 ISZERO PUSH2 0x5F6 JUMPI RETURNDATASIZE PUSH0 DUP1 RETURNDATACOPY RETURNDATASIZE PUSH0 REVERT JUMPDEST POP POP POP JUMP JUMPDEST PUSH0 SLOAD DUP2 JUMP JUMPDEST PUSH1 0x2 PUSH1 0x20 MSTORE DUP2 PUSH0 MSTORE PUSH1 0x40 PUSH0 KECCAK256 PUSH1 0x20 MSTORE DUP1 PUSH0 MSTORE PUSH1 0x40 PUSH0 KECCAK256 PUSH0 SWAP2 POP SWAP2 POP POP SLOAD DUP2 JUMP JUMPDEST PUSH0 PUSH1 0x1 PUSH0 DUP6 DUP2 MSTORE PUSH1 0x20 ADD SWAP1 DUP2 MSTORE PUSH1 0x20 ADD PUSH0 KECCAK256 PUSH1 0x2 ADD SLOAD SUB PUSH2 0x676 JUMPI PUSH1 0x40 MLOAD PUSH32 0x8C379A000000000000000000000000000000000000000000000000000000000 DUP2 MSTORE PUSH1 0x4 ADD PUSH2 0x66D SWAP1 PUSH2 0x112F JUMP JUMPDEST PUSH1 0x40 MLOAD DUP1 SWAP2 SUB SWAP1 REVERT JUMPDEST TIMESTAMP PUSH1 0x1 PUSH0 DUP6 DUP2 MSTORE PUSH1 0x20 ADD SWAP1 DUP2 MSTORE PUSH1 0x20 ADD PUSH0 KECCAK256 PUSH1 0x2 ADD SLOAD GT PUSH2 0x6CC JUMPI PUSH1 0x40 MLOAD PUSH32 0x8C379A000000000000000000000000000000000000000000000000000000000 DUP2 MSTORE PUSH1 0x4 ADD PUSH2 0x6C3 SWAP1 PUSH2 0x1197 JUMP JUMPDEST PUSH1 0x40 MLOAD DUP1 SWAP2 SUB SWAP1 REVERT JUMPDEST DUP2 PUSH1 0x2 PUSH0 CALLER PUSH20 0xFFFFFFFFFFFFFFFFFFFFFFFFFFFFFFFFFFFFFFFF AND PUSH20 0xFFFFFFFFFFFFFFFFFFFFFFFFFFFFFFFFFFFFFFFF AND DUP2 MSTORE PUSH1 0x20 ADD SWAP1 DUP2 MSTORE PUSH1 0x20 ADD PUSH0 KECCAK256 PUSH0 DUP6 DUP2 MSTORE PUSH1 0x20 ADD SWAP1 DUP2 MSTORE PUSH1 0x20 ADD PUSH0 KECCAK256 SLOAD LT ISZERO PUSH2 0x75B JUMPI PUSH1 0x40 MLOAD PUSH32 0x8C379A000000000000000000000000000000000000000000000000000000000 DUP2 MSTORE PUSH1 0x4 ADD PUSH2 0x752 SWAP1 PUSH2 0x1376 JUMP JUMPDEST PUSH1 0x40 MLOAD DUP1 SWAP2 SUB SWAP1 REVERT JUMPDEST DUP2 PUSH1 0x2 PUSH0 CALLER PUSH20 0xFFFFFFFFFFFFFFFFFFFFFFFFFFFFFFFFFFFFFFFF AND PUSH20 0xFFFFFFFFFFFFFFFFFFFFFFFFFFFFFFFFFFFFFFFF AND DUP2 MSTORE PUSH1 0x20 ADD SWAP1 DUP2 MSTORE PUSH1 0x20 ADD PUSH0 KECCAK256 PUSH0 DUP6 DUP2 MSTORE PUSH1 0x20 ADD SWAP1 DUP2 MSTORE PUSH1 0x20 ADD PUSH0 KECCAK256 PUSH0 DUP3 DUP3 SLOAD PUSH2 0x7B6 SWAP2 SWAP1 PUSH2 0x12F9 JUMP JUMPDEST SWAP3 POP POP DUP2 SWAP1 SSTORE POP DUP2 PUSH1 0x2 PUSH0 DUP4 PUSH20 0xFFFFFFFFFFFFFFFFFFFFFFFFFFFFFFFFFFFFFFFF AND PUSH20 0xFFFFFFFFFFFFFFFFFFFFFFFFFFFFFFFFFFFFFFFF AND DUP2 MSTORE PUSH1 0x20 ADD SWAP1 DUP2 MSTORE PUSH1 0x20 ADD PUSH0 KECCAK256 PUSH0 DUP6 DUP2 MSTORE PUSH1 0x20 ADD SWAP1 DUP2 MSTORE PUSH1 0x20 ADD PUSH0 KECCAK256 PUSH0 DUP3 DUP3 SLOAD PUSH2 0x818 SWAP2 SWAP1 PUSH2 0x12C6 JUMP JUMPDEST SWAP3 POP POP DUP2 SWAP1 SSTORE POP POP POP POP JUMP JUMPDEST PUSH0 PUSH1 0x40 MLOAD SWAP1 POP SWAP1 JUMP JUMPDEST PUSH0 DUP1 REVERT JUMPDEST PUSH0 DUP1 REVERT JUMPDEST PUSH0 DUP1 REVERT JUMPDEST PUSH0 DUP1 REVERT JUMPDEST PUSH0 PUSH1 0x1F NOT PUSH1 0x1F DUP4 ADD AND SWAP1 POP SWAP2 SWAP1 POP JUMP JUMPDEST PUSH32 0x4E487B7100000000000000000000000000000000000000000000000000000000 PUSH0 MSTORE PUSH1 0x41 PUSH1 0x4 MSTORE PUSH1 0x24 PUSH0 REVERT JUMPDEST PUSH2 0x883 DUP3 PUSH2 0x83D JUMP JUMPDEST DUP2 ADD DUP2 DUP2 LT PUSH8 0xFFFFFFFFFFFFFFFF DUP3 GT OR ISZERO PUSH2 0x8A2 JUMPI PUSH2 0x8A1 PUSH2 0x84D JUMP JUMPDEST JUMPDEST DUP1 PUSH1 0x40 MSTORE POP POP POP JUMP JUMPDEST PUSH0 PUSH2 0x8B4 PUSH2 0x824 JUMP JUMPDEST SWAP1 POP PUSH2 0x8C0 DUP3 DUP3 PUSH2 0x87A JUMP JUMPDEST SWAP2 SWAP1 POP JUMP JUMPDEST PUSH0 PUSH8 0xFFFFFFFFFFFFFFFF DUP3 GT ISZERO PUSH2 0x8DF JUMPI PUSH2 0x8DE PUSH2 0x84D JUMP JUMPDEST JUMPDEST PUSH2 0x8E8 DUP3 PUSH2 0x83D JUMP JUMPDEST SWAP1 POP PUSH1 0x20 DUP2 ADD SWAP1 POP SWAP2 SWAP1 POP JUMP JUMPDEST DUP3 DUP2 DUP4 CALLDATACOPY PUSH0 DUP4 DUP4 ADD MSTORE POP POP POP JUMP JUMPDEST PUSH0 PUSH2 0x915 PUSH2 0x910 DUP5 PUSH2 0x8C5 JUMP JUMPDEST PUSH2 0x8AB JUMP JUMPDEST SWAP1 POP DUP3 DUP2 MSTORE PUSH1 0x20 DUP2 ADD DUP5 DUP5 DUP5 ADD GT ISZERO PUSH2 0x931 JUMPI PUSH2 0x930 PUSH2 0x839 JUMP JUMPDEST JUMPDEST PUSH2 0x93C DUP5 DUP3 DUP6 PUSH2 0x8F5 JUMP JUMPDEST POP SWAP4 SWAP3 POP POP POP JUMP JUMPDEST PUSH0 DUP3 PUSH1 0x1F DUP4 ADD SLT PUSH2 0x958 JUMPI PUSH2 0x957 PUSH2 0x835 JUMP JUMPDEST JUMPDEST DUP2 CALLDATALOAD PUSH2 0x968 DUP5 DUP3 PUSH1 0x20 DUP7 ADD PUSH2 0x903 JUMP JUMPDEST SWAP2 POP POP SWAP3 SWAP2 POP POP JUMP JUMPDEST PUSH0 DUP2 SWAP1 POP SWAP2 SWAP1 POP JUMP JUMPDEST PUSH2 0x983 DUP2 PUSH2 0x971 JUMP JUMPDEST DUP2 EQ PUSH2 0x98D JUMPI PUSH0 DUP1 REVERT JUMPDEST POP JUMP JUMPDEST PUSH0 DUP2 CALLDATALOAD SWAP1 POP PUSH2 0x99E DUP2 PUSH2 0x97A JUMP JUMPDEST SWAP3 SWAP2 POP POP JUMP JUMPDEST PUSH0 DUP1 PUSH0 DUP1 PUSH1 0x80 DUP6 DUP8 SUB SLT ISZERO PUSH2 0x9BC JUMPI PUSH2 0x9BB PUSH2 0x82D JUMP JUMPDEST JUMPDEST PUSH0 DUP6 ADD CALLDATALOAD PUSH8 0xFFFFFFFFFFFFFFFF DUP2 GT ISZERO PUSH2 0x9D9 JUMPI PUSH2 0x9D8 PUSH2 0x831 JUMP JUMPDEST JUMPDEST PUSH2 0x9E5 DUP8 DUP3 DUP9 ADD PUSH2 0x944 JUMP JUMPDEST SWAP5 POP POP PUSH1 0x20 PUSH2 0x9F6 DUP8 DUP3 DUP9 ADD PUSH2 0x990 JUMP JUMPDEST SWAP4 POP POP PUSH1 0x40 PUSH2 0xA07 DUP8 DUP3 DUP9 ADD PUSH2 0x990 JUMP JUMPDEST SWAP3 POP POP PUSH1 0x60 PUSH2 0xA18 DUP8 DUP3 DUP9 ADD PUSH2 0x990 JUMP JUMPDEST SWAP2 POP POP SWAP3 SWAP6 SWAP2 SWAP5 POP SWAP3 POP JUMP JUMPDEST PUSH0 PUSH1 0x20 DUP3 DUP5 SUB SLT ISZERO PUSH2 0xA39 JUMPI PUSH2 0xA38 PUSH2 0x82D JUMP JUMPDEST JUMPDEST PUSH0 PUSH2 0xA46 DUP5 DUP3 DUP6 ADD PUSH2 0x990 JUMP JUMPDEST SWAP2 POP POP SWAP3 SWAP2 POP POP JUMP JUMPDEST PUSH0 PUSH20 0xFFFFFFFFFFFFFFFFFFFFFFFFFFFFFFFFFFFFFFFF DUP3 AND SWAP1 POP SWAP2 SWAP1 POP JUMP JUMPDEST PUSH0 PUSH2 0xA78 DUP3 PUSH2 0xA4F JUMP JUMPDEST SWAP1 POP SWAP2 SWAP1 POP JUMP JUMPDEST PUSH2 0xA88 DUP2 PUSH2 0xA6E JUMP JUMPDEST DUP3 MSTORE POP POP JUMP JUMPDEST PUSH0 DUP2 MLOAD SWAP1 POP SWAP2 SWAP1 POP JUMP JUMPDEST PUSH0 DUP3 DUP3 MSTORE PUSH1 0x20 DUP3 ADD SWAP1 POP SWAP3 SWAP2 POP POP JUMP JUMPDEST PUSH0 JUMPDEST DUP4 DUP2 LT ISZERO PUSH2 0xAC5 JUMPI DUP1 DUP3 ADD MLOAD DUP2 DUP5 ADD MSTORE PUSH1 0x20 DUP2 ADD SWAP1 POP PUSH2 0xAAA JUMP JUMPDEST PUSH0 DUP5 DUP5 ADD MSTORE POP POP POP POP JUMP JUMPDEST PUSH0 PUSH2 0xADA DUP3 PUSH2 0xA8E JUMP JUMPDEST PUSH2 0xAE4 DUP2 DUP6 PUSH2 0xA98 JUMP JUMPDEST SWAP4 POP PUSH2 0xAF4 DUP2 DUP6 PUSH1 0x20 DUP7 ADD PUSH2 0xAA8 JUMP JUMPDEST PUSH2 0xAFD DUP2 PUSH2 0x83D JUMP JUMPDEST DUP5 ADD SWAP2 POP POP SWAP3 SWAP2 POP POP JUMP JUMPDEST PUSH2 0xB11 DUP2 PUSH2 0x971 JUMP JUMPDEST DUP3 MSTORE POP POP JUMP JUMPDEST PUSH0 PUSH1 0xC0 DUP3 ADD SWAP1 POP PUSH2 0xB2A PUSH0 DUP4 ADD DUP10 PUSH2 0xA7F JUMP JUMPDEST DUP2 DUP2 SUB PUSH1 0x20 DUP4 ADD MSTORE PUSH2 0xB3C DUP2 DUP9 PUSH2 0xAD0 JUMP JUMPDEST SWAP1 POP PUSH2 0xB4B PUSH1 0x40 DUP4 ADD DUP8 PUSH2 0xB08 JUMP JUMPDEST PUSH2 0xB58 PUSH1 0x60 DUP4 ADD DUP7 PUSH2 0xB08 JUMP JUMPDEST PUSH2 0xB65 PUSH1 0x80 DUP4 ADD DUP6 PUSH2 0xB08 JUMP JUMPDEST PUSH2 0xB72 PUSH1 0xA0 DUP4 ADD DUP5 PUSH2 0xB08 JUMP JUMPDEST SWAP8 SWAP7 POP POP POP POP POP POP POP JUMP JUMPDEST PUSH0 DUP1 PUSH1 0x40 DUP4 DUP6 SUB SLT ISZERO PUSH2 0xB93 JUMPI PUSH2 0xB92 PUSH2 0x82D JUMP JUMPDEST JUMPDEST PUSH0 PUSH2 0xBA0 DUP6 DUP3 DUP7 ADD PUSH2 0x990 JUMP JUMPDEST SWAP3 POP POP PUSH1 0x20 PUSH2 0xBB1 DUP6 DUP3 DUP7 ADD PUSH2 0x990 JUMP JUMPDEST SWAP2 POP POP SWAP3 POP SWAP3 SWAP1 POP JUMP JUMPDEST PUSH0 PUSH1 0x20 DUP3 ADD SWAP1 POP PUSH2 0xBCE PUSH0 DUP4 ADD DUP5 PUSH2 0xB08 JUMP JUMPDEST SWAP3 SWAP2 POP POP JUMP JUMPDEST PUSH2 0xBDD DUP2 PUSH2 0xA6E JUMP JUMPDEST DUP2 EQ PUSH2 0xBE7 JUMPI PUSH0 DUP1 REVERT JUMPDEST POP JUMP JUMPDEST PUSH0 DUP2 CALLDATALOAD SWAP1 POP PUSH2 0xBF8 DUP2 PUSH2 0xBD4 JUMP JUMPDEST SWAP3 SWAP2 POP POP JUMP JUMPDEST PUSH0 DUP1 PUSH1 0x40 DUP4 DUP6 SUB SLT ISZERO PUSH2 0xC14 JUMPI PUSH2 0xC13 PUSH2 0x82D JUMP JUMPDEST JUMPDEST PUSH0 PUSH2 0xC21 DUP6 DUP3 DUP7 ADD PUSH2 0xBEA JUMP JUMPDEST SWAP3 POP POP PUSH1 0x20 PUSH2 0xC32 DUP6 DUP3 DUP7 ADD PUSH2 0x990 JUMP JUMPDEST SWAP2 POP POP SWAP3 POP SWAP3 SWAP1 POP JUMP JUMPDEST PUSH0 DUP1 PUSH0 PUSH1 0x60 DUP5 DUP7 SUB SLT ISZERO PUSH2 0xC53 JUMPI PUSH2 0xC52 PUSH2 0x82D JUMP JUMPDEST JUMPDEST PUSH0 PUSH2 0xC60 DUP7 DUP3 DUP8 ADD PUSH2 0x990 JUMP JUMPDEST SWAP4 POP POP PUSH1 0x20 PUSH2 0xC71 DUP7 DUP3 DUP8 ADD PUSH2 0x990 JUMP JUMPDEST SWAP3 POP POP PUSH1 0x40 PUSH2 0xC82 DUP7 DUP3 DUP8 ADD PUSH2 0xBEA JUMP JUMPDEST SWAP2 POP POP SWAP3 POP SWAP3 POP SWAP3 JUMP JUMPDEST PUSH32 0x596F752063616E206F6E6C79206F7267616E697A65206576656E7420666F7220 PUSH0 DUP3 ADD MSTORE PUSH32 0x6675747572652064617465730000000000000000000000000000000000000000 PUSH1 0x20 DUP3 ADD MSTORE POP JUMP JUMPDEST PUSH0 PUSH2 0xCE6 PUSH1 0x2C DUP4 PUSH2 0xA98 JUMP JUMPDEST SWAP2 POP PUSH2 0xCF1 DUP3 PUSH2 0xC8C JUMP JUMPDEST PUSH1 0x40 DUP3 ADD SWAP1 POP SWAP2 SWAP1 POP JUMP JUMPDEST PUSH0 PUSH1 0x20 DUP3 ADD SWAP1 POP DUP2 DUP2 SUB PUSH0 DUP4 ADD MSTORE PUSH2 0xD13 DUP2 PUSH2 0xCDA JUMP JUMPDEST SWAP1 POP SWAP2 SWAP1 POP JUMP JUMPDEST PUSH32 0x596F752063616E206F6E6C79206F7267616E697A65206576656E742069662079 PUSH0 DUP3 ADD MSTORE PUSH32 0x6F7520637265617465206D6F7265207468616E2030207469636B657473000000 PUSH1 0x20 DUP3 ADD MSTORE POP JUMP JUMPDEST PUSH0 PUSH2 0xD74 PUSH1 0x3D DUP4 PUSH2 0xA98 JUMP JUMPDEST SWAP2 POP PUSH2 0xD7F DUP3 PUSH2 0xD1A JUMP JUMPDEST PUSH1 0x40 DUP3 ADD SWAP1 POP SWAP2 SWAP1 POP JUMP JUMPDEST PUSH0 PUSH1 0x20 DUP3 ADD SWAP1 POP DUP2 DUP2 SUB PUSH0 DUP4 ADD MSTORE PUSH2 0xDA1 DUP2 PUSH2 0xD68 JUMP JUMPDEST SWAP1 POP SWAP2 SWAP1 POP JUMP JUMPDEST PUSH32 0x4E487B7100000000000000000000000000000000000000000000000000000000 PUSH0 MSTORE PUSH1 0x22 PUSH1 0x4 MSTORE PUSH1 0x24 PUSH0 REVERT JUMPDEST PUSH0 PUSH1 0x2 DUP3 DIV SWAP1 POP PUSH1 0x1 DUP3 AND DUP1 PUSH2 0xDEC JUMPI PUSH1 0x7F DUP3 AND SWAP2 POP JUMPDEST PUSH1 0x20 DUP3 LT DUP2 SUB PUSH2 0xDFF JUMPI PUSH2 0xDFE PUSH2 0xDA8 JUMP JUMPDEST JUMPDEST POP SWAP2 SWAP1 POP JUMP JUMPDEST PUSH0 DUP2 SWAP1 POP DUP2 PUSH0 MSTORE PUSH1 0x20 PUSH0 KECCAK256 SWAP1 POP SWAP2 SWAP1 POP JUMP JUMPDEST PUSH0 PUSH1 0x20 PUSH1 0x1F DUP4 ADD DIV SWAP1 POP SWAP2 SWAP1 POP JUMP JUMPDEST PUSH0 DUP3 DUP3 SHL SWAP1 POP SWAP3 SWAP2 POP POP JUMP JUMPDEST PUSH0 PUSH1 0x8 DUP4 MUL PUSH2 0xE61 PUSH32 0xFFFFFFFFFFFFFFFFFFFFFFFFFFFFFFFFFFFFFFFFFFFFFFFFFFFFFFFFFFFFFFFF DUP3 PUSH2 0xE26 JUMP JUMPDEST PUSH2 0xE6B DUP7 DUP4 PUSH2 0xE26 JUMP JUMPDEST SWAP6 POP DUP1 NOT DUP5 AND SWAP4 POP DUP1 DUP7 AND DUP5 OR SWAP3 POP POP POP SWAP4 SWAP3 POP POP POP JUMP JUMPDEST PUSH0 DUP2 SWAP1 POP SWAP2 SWAP1 POP JUMP JUMPDEST PUSH0 PUSH2 0xEA6 PUSH2 0xEA1 PUSH2 0xE9C DUP5 PUSH2 0x971 JUMP JUMPDEST PUSH2 0xE83 JUMP JUMPDEST PUSH2 0x971 JUMP JUMPDEST SWAP1 POP SWAP2 SWAP1 POP JUMP JUMPDEST PUSH0 DUP2 SWAP1 POP SWAP2 SWAP1 POP JUMP JUMPDEST PUSH2 0xEBF DUP4 PUSH2 0xE8C JUMP JUMPDEST PUSH2 0xED3 PUSH2 0xECB DUP3 PUSH2 0xEAD JUMP JUMPDEST DUP5 DUP5 SLOAD PUSH2 0xE32 JUMP JUMPDEST DUP3 SSTORE POP POP POP POP JUMP JUMPDEST PUSH0 SWAP1 JUMP JUMPDEST PUSH2 0xEE7 PUSH2 0xEDB JUMP JUMPDEST PUSH2 0xEF2 DUP2 DUP5 DUP5 PUSH2 0xEB6 JUMP JUMPDEST POP POP POP JUMP JUMPDEST JUMPDEST DUP2 DUP2 LT ISZERO PUSH2 0xF15 JUMPI PUSH2 0xF0A PUSH0 DUP3 PUSH2 0xEDF JUMP JUMPDEST PUSH1 0x1 DUP2 ADD SWAP1 POP PUSH2 0xEF8 JUMP JUMPDEST POP POP JUMP JUMPDEST PUSH1 0x1F DUP3 GT ISZERO PUSH2 0xF5A JUMPI PUSH2 0xF2B DUP2 PUSH2 0xE05 JUMP JUMPDEST PUSH2 0xF34 DUP5 PUSH2 0xE17 JUMP JUMPDEST DUP2 ADD PUSH1 0x20 DUP6 LT ISZERO PUSH2 0xF43 JUMPI DUP2 SWAP1 POP JUMPDEST PUSH2 0xF57 PUSH2 0xF4F DUP6 PUSH2 0xE17 JUMP JUMPDEST DUP4 ADD DUP3 PUSH2 0xEF7 JUMP JUMPDEST POP POP JUMPDEST POP POP POP JUMP JUMPDEST PUSH0 DUP3 DUP3 SHR SWAP1 POP SWAP3 SWAP2 POP POP JUMP JUMPDEST PUSH0 PUSH2 0xF7A PUSH0 NOT DUP5 PUSH1 0x8 MUL PUSH2 0xF5F JUMP JUMPDEST NOT DUP1 DUP4 AND SWAP2 POP POP SWAP3 SWAP2 POP POP JUMP JUMPDEST PUSH0 PUSH2 0xF92 DUP4 DUP4 PUSH2 0xF6B JUMP JUMPDEST SWAP2 POP DUP3 PUSH1 0x2 MUL DUP3 OR SWAP1 POP SWAP3 SWAP2 POP POP JUMP JUMPDEST PUSH2 0xFAB DUP3 PUSH2 0xA8E JUMP JUMPDEST PUSH8 0xFFFFFFFFFFFFFFFF DUP2 GT ISZERO PUSH2 0xFC4 JUMPI PUSH2 0xFC3 PUSH2 0x84D JUMP JUMPDEST JUMPDEST PUSH2 0xFCE DUP3 SLOAD PUSH2 0xDD5 JUMP JUMPDEST PUSH2 0xFD9 DUP3 DUP3 DUP6 PUSH2 0xF19 JUMP JUMPDEST PUSH0 PUSH1 0x20 SWAP1 POP PUSH1 0x1F DUP4 GT PUSH1 0x1 DUP2 EQ PUSH2 0x100A JUMPI PUSH0 DUP5 ISZERO PUSH2 0xFF8 JUMPI DUP3 DUP8 ADD MLOAD SWAP1 POP JUMPDEST PUSH2 0x1002 DUP6 DUP3 PUSH2 0xF87 JUMP JUMPDEST DUP7 SSTORE POP PUSH2 0x1069 JUMP JUMPDEST PUSH1 0x1F NOT DUP5 AND PUSH2 0x1018 DUP7 PUSH2 0xE05 JUMP JUMPDEST PUSH0 JUMPDEST DUP3 DUP2 LT ISZERO PUSH2 0x103F JUMPI DUP5 DUP10 ADD MLOAD DUP3 SSTORE PUSH1 0x1 DUP3 ADD SWAP2 POP PUSH1 0x20 DUP6 ADD SWAP5 POP PUSH1 0x20 DUP2 ADD SWAP1 POP PUSH2 0x101A JUMP JUMPDEST DUP7 DUP4 LT ISZERO PUSH2 0x105C JUMPI DUP5 DUP10 ADD MLOAD PUSH2 0x1058 PUSH1 0x1F DUP10 AND DUP3 PUSH2 0xF6B JUMP JUMPDEST DUP4 SSTORE POP JUMPDEST PUSH1 0x1 PUSH1 0x2 DUP9 MUL ADD DUP9 SSTORE POP POP POP JUMPDEST POP POP POP POP POP POP JUMP JUMPDEST PUSH32 0x4E487B7100000000000000000000000000000000000000000000000000000000 PUSH0 MSTORE PUSH1 0x11 PUSH1 0x4 MSTORE PUSH1 0x24 PUSH0 REVERT JUMPDEST PUSH0 PUSH2 0x10A8 DUP3 PUSH2 0x971 JUMP JUMPDEST SWAP2 POP PUSH32 0xFFFFFFFFFFFFFFFFFFFFFFFFFFFFFFFFFFFFFFFFFFFFFFFFFFFFFFFFFFFFFFFF DUP3 SUB PUSH2 0x10DA JUMPI PUSH2 0x10D9 PUSH2 0x1071 JUMP JUMPDEST JUMPDEST PUSH1 0x1 DUP3 ADD SWAP1 POP SWAP2 SWAP1 POP JUMP JUMPDEST PUSH32 0x54686973206576656E7420646F65736E27742065786973740000000000000000 PUSH0 DUP3 ADD MSTORE POP JUMP JUMPDEST PUSH0 PUSH2 0x1119 PUSH1 0x18 DUP4 PUSH2 0xA98 JUMP JUMPDEST SWAP2 POP PUSH2 0x1124 DUP3 PUSH2 0x10E5 JUMP JUMPDEST PUSH1 0x20 DUP3 ADD SWAP1 POP SWAP2 SWAP1 POP JUMP JUMPDEST PUSH0 PUSH1 0x20 DUP3 ADD SWAP1 POP DUP2 DUP2 SUB PUSH0 DUP4 ADD MSTORE PUSH2 0x1146 DUP2 PUSH2 0x110D JUMP JUMPDEST SWAP1 POP SWAP2 SWAP1 POP JUMP JUMPDEST PUSH32 0x546865206576656E742068617320616C7265616479206F636375726564000000 PUSH0 DUP3 ADD MSTORE POP JUMP JUMPDEST PUSH0 PUSH2 0x1181 PUSH1 0x1D DUP4 PUSH2 0xA98 JUMP JUMPDEST SWAP2 POP PUSH2 0x118C DUP3 PUSH2 0x114D JUMP JUMPDEST PUSH1 0x20 DUP3 ADD SWAP1 POP SWAP2 SWAP1 POP JUMP JUMPDEST PUSH0 PUSH1 0x20 DUP3 ADD SWAP1 POP DUP2 DUP2 SUB PUSH0 DUP4 ADD MSTORE PUSH2 0x11AE DUP2 PUSH2 0x1175 JUMP JUMPDEST SWAP1 POP SWAP2 SWAP1 POP JUMP JUMPDEST PUSH0 PUSH2 0x11BF DUP3 PUSH2 0x971 JUMP JUMPDEST SWAP2 POP PUSH2 0x11CA DUP4 PUSH2 0x971 JUMP JUMPDEST SWAP3 POP DUP3 DUP3 MUL PUSH2 0x11D8 DUP2 PUSH2 0x971 JUMP JUMPDEST SWAP2 POP DUP3 DUP3 DIV DUP5 EQ DUP4 ISZERO OR PUSH2 0x11EF JUMPI PUSH2 0x11EE PUSH2 0x1071 JUMP JUMPDEST JUMPDEST POP SWAP3 SWAP2 POP POP JUMP JUMPDEST PUSH32 0x4574686572206973206E6F7420656E6F75676800000000000000000000000000 PUSH0 DUP3 ADD MSTORE POP JUMP JUMPDEST PUSH0 PUSH2 0x122A PUSH1 0x13 DUP4 PUSH2 0xA98 JUMP JUMPDEST SWAP2 POP PUSH2 0x1235 DUP3 PUSH2 0x11F6 JUMP JUMPDEST PUSH1 0x20 DUP3 ADD SWAP1 POP SWAP2 SWAP1 POP JUMP JUMPDEST PUSH0 PUSH1 0x20 DUP3 ADD SWAP1 POP DUP2 DUP2 SUB PUSH0 DUP4 ADD MSTORE PUSH2 0x1257 DUP2 PUSH2 0x121E JUMP JUMPDEST SWAP1 POP SWAP2 SWAP1 POP JUMP JUMPDEST PUSH32 0x4E6F7420656E6F756768207469636B6574730000000000000000000000000000 PUSH0 DUP3 ADD MSTORE POP JUMP JUMPDEST PUSH0 PUSH2 0x1292 PUSH1 0x12 DUP4 PUSH2 0xA98 JUMP JUMPDEST SWAP2 POP PUSH2 0x129D DUP3 PUSH2 0x125E JUMP JUMPDEST PUSH1 0x20 DUP3 ADD SWAP1 POP SWAP2 SWAP1 POP JUMP JUMPDEST PUSH0 PUSH1 0x20 DUP3 ADD SWAP1 POP DUP2 DUP2 SUB PUSH0 DUP4 ADD MSTORE PUSH2 0x12BF DUP2 PUSH2 0x1286 JUMP JUMPDEST SWAP1 POP SWAP2 SWAP1 POP JUMP JUMPDEST PUSH0 PUSH2 0x12D0 DUP3 PUSH2 0x971 JUMP JUMPDEST SWAP2 POP PUSH2 0x12DB DUP4 PUSH2 0x971 JUMP JUMPDEST SWAP3 POP DUP3 DUP3 ADD SWAP1 POP DUP1 DUP3 GT ISZERO PUSH2 0x12F3 JUMPI PUSH2 0x12F2 PUSH2 0x1071 JUMP JUMPDEST JUMPDEST SWAP3 SWAP2 POP POP JUMP JUMPDEST PUSH0 PUSH2 0x1303 DUP3 PUSH2 0x971 JUMP JUMPDEST SWAP2 POP PUSH2 0x130E DUP4 PUSH2 0x971 JUMP JUMPDEST SWAP3 POP DUP3 DUP3 SUB SWAP1 POP DUP2 DUP2 GT ISZERO PUSH2 0x1326 JUMPI PUSH2 0x1325 PUSH2 0x1071 JUMP JUMPDEST JUMPDEST SWAP3 SWAP2 POP POP JUMP JUMPDEST PUSH32 0x596F7520646F6E2774206861766520656E6F756768207469636B657473000000 PUSH0 DUP3 ADD MSTORE POP JUMP JUMPDEST PUSH0 PUSH2 0x1360 PUSH1 0x1D DUP4 PUSH2 0xA98 JUMP JUMPDEST SWAP2 POP PUSH2 0x136B DUP3 PUSH2 0x132C JUMP JUMPDEST PUSH1 0x20 DUP3 ADD SWAP1 POP SWAP2 SWAP1 POP JUMP JUMPDEST PUSH0 PUSH1 0x20 DUP3 ADD SWAP1 POP DUP2 DUP2 SUB PUSH0 DUP4 ADD MSTORE PUSH2 0x138D DUP2 PUSH2 0x1354 JUMP JUMPDEST SWAP1 POP SWAP2 SWAP1 POP JUMP INVALID LOG2 PUSH5 0x6970667358 0x22 SLT KECCAK256 CODESIZE GT 0xCE XOR 0xCC 0xCF SWAP8 0xD2 STATICCALL MSIZE 0x2E CALLCODE SIGNEXTEND 0xE5 0xBF PUSH24 0xBA870AEFF94667EF054E77BFC7B6DFA764736F6C63430008 XOR STOP CALLER "
				},
				"gasEstimates": {
					"creation": {
						"codeDepositCost": "1013200",
						"executionCost": "1052",
						"totalCost": "1014252"
					},
					"external": {
						"buyTicket(uint256,uint256)": "infinite",
						"createEvent(string,uint256,uint256,uint256)": "infinite",
						"events(uint256)": "infinite",
						"nextId()": "2468",
						"tickets(address,uint256)": "infinite",
						"transferTicket(uint256,uint256,address)": "infinite"
					}
				},
				"methodIdentifiers": {
					"buyTicket(uint256,uint256)": "298ec208",
					"createEvent(string,uint256,uint256,uint256)": "0374ab0b",
					"events(uint256)": "0b791430",
					"nextId()": "61b8ce8c",
					"tickets(address,uint256)": "dae7a13c",
					"transferTicket(uint256,uint256,address)": "f086a09b"
				}
			},
			"storageLayout": {
				"storage": [
					{
						"astId": 16,
						"contract": "Event Organizaton/event.sol:EventContract",
						"label": "nextId",
						"offset": 0,
						"slot": "0",
						"type": "t_uint256"
					},
					{
						"astId": 21,
						"contract": "Event Organizaton/event.sol:EventContract",
						"label": "events",
						"offset": 0,
						"slot": "1",
						"type": "t_mapping(t_uint256,t_struct(Event)14_storage)"
					},
					{
						"astId": 27,
						"contract": "Event Organizaton/event.sol:EventContract",
						"label": "tickets",
						"offset": 0,
						"slot": "2",
						"type": "t_mapping(t_address,t_mapping(t_uint256,t_uint256))"
					}
				],
				"types": {
					"t_address": {
						"encoding": "inplace",
						"label": "address",
						"numberOfBytes": "20"
					},
					"t_mapping(t_address,t_mapping(t_uint256,t_uint256))": {
						"encoding": "mapping",
						"key": "t_address",
						"label": "mapping(address => mapping(uint256 => uint256))",
						"numberOfBytes": "32",
						"value": "t_mapping(t_uint256,t_uint256)"
					},
					"t_mapping(t_uint256,t_struct(Event)14_storage)": {
						"encoding": "mapping",
						"key": "t_uint256",
						"label": "mapping(uint256 => struct EventContract.Event)",
						"numberOfBytes": "32",
						"value": "t_struct(Event)14_storage"
					},
					"t_mapping(t_uint256,t_uint256)": {
						"encoding": "mapping",
						"key": "t_uint256",
						"label": "mapping(uint256 => uint256)",
						"numberOfBytes": "32",
						"value": "t_uint256"
					},
					"t_string_storage": {
						"encoding": "bytes",
						"label": "string",
						"numberOfBytes": "32"
					},
					"t_struct(Event)14_storage": {
						"encoding": "inplace",
						"label": "struct EventContract.Event",
						"members": [
							{
								"astId": 3,
								"contract": "Event Organizaton/event.sol:EventContract",
								"label": "organizer",
								"offset": 0,
								"slot": "0",
								"type": "t_address"
							},
							{
								"astId": 5,
								"contract": "Event Organizaton/event.sol:EventContract",
								"label": "name",
								"offset": 0,
								"slot": "1",
								"type": "t_string_storage"
							},
							{
								"astId": 7,
								"contract": "Event Organizaton/event.sol:EventContract",
								"label": "date",
								"offset": 0,
								"slot": "2",
								"type": "t_uint256"
							},
							{
								"astId": 9,
								"contract": "Event Organizaton/event.sol:EventContract",
								"label": "price",
								"offset": 0,
								"slot": "3",
								"type": "t_uint256"
							},
							{
								"astId": 11,
								"contract": "Event Organizaton/event.sol:EventContract",
								"label": "ticketCount",
								"offset": 0,
								"slot": "4",
								"type": "t_uint256"
							},
							{
								"astId": 13,
								"contract": "Event Organizaton/event.sol:EventContract",
								"label": "ticketRemain",
								"offset": 0,
								"slot": "5",
								"type": "t_uint256"
							}
						],
						"numberOfBytes": "192"
					},
					"t_uint256": {
						"encoding": "inplace",
						"label": "uint256",
						"numberOfBytes": "32"
					}
				}
			},
			"userdoc": {
				"kind": "user",
				"methods": {},
				"version": 1
			}
		}
	}
}